{
  "contractName": "Assertive",
  "abi": [
    {
      "constant": false,
      "inputs": [
        {
          "name": "assertion",
          "type": "bool"
        }
      ],
      "name": "assert",
      "outputs": [],
      "payable": false,
      "stateMutability": "nonpayable",
      "type": "function"
    }
  ],
  "bytecode": "0x60606040523415600e57600080fd5b60a08061001c6000396000f300606060405260043610603f576000357c0100000000000000000000000000000000000000000000000000000000900463ffffffff1680630674763c146044575b600080fd5b3415604e57600080fd5b6064600480803515159060200190919050506066565b005b801515607157600080fd5b505600a165627a7a7230582022344dadc27770d511a927b05dc8f88f0f7c25506e5ba2bd1be0d198850285de0029",
  "source": "pragma solidity ^0.4.6;\ncontract Assertive {\n  function assert(bool assertion) {\n    if (!assertion) throw;\n  }\n}\n",
  "sourcePath": "/Users/drewstone/src/eth/truffle-abi/contracts/lib/Assertive.sol",
  "compiler": {
    "name": "solc",
    "version": "0.4.19+commit.c4cbbb05.Emscripten.clang"
  },
  "schemaVersion": "2.0.0",
  "updatedAt": "2018-07-09T23:07:42.795Z"
}