{
  "contractName": "ExchangeWhitelist",
  "abi": [
    {
      "constant": true,
      "inputs": [],
      "name": "feeMakeExporter",
      "outputs": [
        {
          "name": "",
          "type": "address"
        }
      ],
      "payable": false,
      "stateMutability": "view",
      "type": "function"
    },
    {
      "constant": false,
      "inputs": [
        {
          "name": "assertion",
          "type": "bool"
        }
      ],
      "name": "assert",
      "outputs": [],
      "payable": false,
      "stateMutability": "nonpayable",
      "type": "function"
    },
    {
      "constant": false,
      "inputs": [
        {
          "name": "newOwner",
          "type": "address"
        }
      ],
      "name": "setOwner",
      "outputs": [],
      "payable": false,
      "stateMutability": "nonpayable",
      "type": "function"
    },
    {
      "constant": true,
      "inputs": [],
      "name": "feeTakeExporter",
      "outputs": [
        {
          "name": "",
          "type": "address"
        }
      ],
      "payable": false,
      "stateMutability": "view",
      "type": "function"
    },
    {
      "constant": true,
      "inputs": [
        {
          "name": "",
          "type": "address"
        }
      ],
      "name": "admins",
      "outputs": [
        {
          "name": "",
          "type": "bool"
        }
      ],
      "payable": false,
      "stateMutability": "view",
      "type": "function"
    },
    {
      "constant": true,
      "inputs": [
        {
          "name": "",
          "type": "address"
        },
        {
          "name": "",
          "type": "address"
        }
      ],
      "name": "tokens",
      "outputs": [
        {
          "name": "",
          "type": "uint256"
        }
      ],
      "payable": false,
      "stateMutability": "view",
      "type": "function"
    },
    {
      "constant": true,
      "inputs": [
        {
          "name": "",
          "type": "address"
        }
      ],
      "name": "accounts",
      "outputs": [
        {
          "name": "authorized",
          "type": "bool"
        },
        {
          "name": "tier",
          "type": "uint256"
        },
        {
          "name": "resetWithdrawal",
          "type": "uint256"
        },
        {
          "name": "withdrawn",
          "type": "uint256"
        }
      ],
      "payable": false,
      "stateMutability": "view",
      "type": "function"
    },
    {
      "constant": true,
      "inputs": [],
      "name": "feeAccount",
      "outputs": [
        {
          "name": "",
          "type": "address"
        }
      ],
      "payable": false,
      "stateMutability": "view",
      "type": "function"
    },
    {
      "constant": false,
      "inputs": [],
      "name": "getOwner",
      "outputs": [
        {
          "name": "out",
          "type": "address"
        }
      ],
      "payable": false,
      "stateMutability": "nonpayable",
      "type": "function"
    },
    {
      "constant": true,
      "inputs": [
        {
          "name": "",
          "type": "address"
        }
      ],
      "name": "whitelistAdmins",
      "outputs": [
        {
          "name": "",
          "type": "bool"
        }
      ],
      "payable": false,
      "stateMutability": "view",
      "type": "function"
    },
    {
      "constant": true,
      "inputs": [],
      "name": "dvipAddress",
      "outputs": [
        {
          "name": "",
          "type": "address"
        }
      ],
      "payable": false,
      "stateMutability": "view",
      "type": "function"
    },
    {
      "constant": true,
      "inputs": [
        {
          "name": "",
          "type": "bytes32"
        }
      ],
      "name": "orderFills",
      "outputs": [
        {
          "name": "",
          "type": "uint256"
        }
      ],
      "payable": false,
      "stateMutability": "view",
      "type": "function"
    },
    {
      "inputs": [
        {
          "name": "feeAccount_",
          "type": "address"
        },
        {
          "name": "dvipAddress_",
          "type": "address"
        }
      ],
      "payable": false,
      "stateMutability": "nonpayable",
      "type": "constructor"
    },
    {
      "payable": false,
      "stateMutability": "nonpayable",
      "type": "fallback"
    },
    {
      "anonymous": false,
      "inputs": [
        {
          "indexed": false,
          "name": "tokenBuy",
          "type": "address"
        },
        {
          "indexed": false,
          "name": "amountBuy",
          "type": "uint256"
        },
        {
          "indexed": false,
          "name": "tokenSell",
          "type": "address"
        },
        {
          "indexed": false,
          "name": "amountSell",
          "type": "uint256"
        },
        {
          "indexed": false,
          "name": "expires",
          "type": "uint256"
        },
        {
          "indexed": false,
          "name": "nonce",
          "type": "uint256"
        },
        {
          "indexed": false,
          "name": "user",
          "type": "address"
        },
        {
          "indexed": false,
          "name": "v",
          "type": "uint8"
        },
        {
          "indexed": false,
          "name": "r",
          "type": "bytes32"
        },
        {
          "indexed": false,
          "name": "s",
          "type": "bytes32"
        }
      ],
      "name": "Order",
      "type": "event"
    },
    {
      "anonymous": false,
      "inputs": [
        {
          "indexed": false,
          "name": "tokenBuy",
          "type": "address"
        },
        {
          "indexed": false,
          "name": "amountBuy",
          "type": "uint256"
        },
        {
          "indexed": false,
          "name": "tokenSell",
          "type": "address"
        },
        {
          "indexed": false,
          "name": "amountSell",
          "type": "uint256"
        },
        {
          "indexed": false,
          "name": "expires",
          "type": "uint256"
        },
        {
          "indexed": false,
          "name": "nonce",
          "type": "uint256"
        },
        {
          "indexed": false,
          "name": "user",
          "type": "address"
        },
        {
          "indexed": false,
          "name": "v",
          "type": "uint8"
        },
        {
          "indexed": false,
          "name": "r",
          "type": "bytes32"
        },
        {
          "indexed": false,
          "name": "s",
          "type": "bytes32"
        }
      ],
      "name": "Cancel",
      "type": "event"
    },
    {
      "anonymous": false,
      "inputs": [
        {
          "indexed": false,
          "name": "tokenBuy",
          "type": "address"
        },
        {
          "indexed": false,
          "name": "amountBuy",
          "type": "uint256"
        },
        {
          "indexed": false,
          "name": "tokenSell",
          "type": "address"
        },
        {
          "indexed": false,
          "name": "amountSell",
          "type": "uint256"
        },
        {
          "indexed": false,
          "name": "get",
          "type": "address"
        },
        {
          "indexed": false,
          "name": "give",
          "type": "address"
        },
        {
          "indexed": false,
          "name": "hash",
          "type": "bytes32"
        }
      ],
      "name": "Trade",
      "type": "event"
    },
    {
      "anonymous": false,
      "inputs": [
        {
          "indexed": false,
          "name": "token",
          "type": "address"
        },
        {
          "indexed": false,
          "name": "user",
          "type": "address"
        },
        {
          "indexed": false,
          "name": "amount",
          "type": "uint256"
        },
        {
          "indexed": false,
          "name": "balance",
          "type": "uint256"
        }
      ],
      "name": "Deposit",
      "type": "event"
    },
    {
      "anonymous": false,
      "inputs": [
        {
          "indexed": false,
          "name": "token",
          "type": "address"
        },
        {
          "indexed": false,
          "name": "user",
          "type": "address"
        },
        {
          "indexed": false,
          "name": "amount",
          "type": "uint256"
        },
        {
          "indexed": false,
          "name": "balance",
          "type": "uint256"
        }
      ],
      "name": "Withdraw",
      "type": "event"
    },
    {
      "anonymous": false,
      "inputs": [
        {
          "indexed": true,
          "name": "previousOwner",
          "type": "address"
        },
        {
          "indexed": true,
          "name": "newOwner",
          "type": "address"
        }
      ],
      "name": "SetOwner",
      "type": "event"
    },
    {
      "constant": false,
      "inputs": [
        {
          "name": "feeAccount_",
          "type": "address"
        }
      ],
      "name": "setFeeAccount",
      "outputs": [],
      "payable": false,
      "stateMutability": "nonpayable",
      "type": "function"
    },
    {
      "constant": false,
      "inputs": [
        {
          "name": "dvipAddress_",
          "type": "address"
        }
      ],
      "name": "setDVIP",
      "outputs": [],
      "payable": false,
      "stateMutability": "nonpayable",
      "type": "function"
    },
    {
      "constant": false,
      "inputs": [
        {
          "name": "admin",
          "type": "address"
        },
        {
          "name": "isAdmin",
          "type": "bool"
        }
      ],
      "name": "setAdmin",
      "outputs": [],
      "payable": false,
      "stateMutability": "nonpayable",
      "type": "function"
    },
    {
      "constant": false,
      "inputs": [
        {
          "name": "whitelister",
          "type": "address"
        },
        {
          "name": "isWhitelister",
          "type": "bool"
        }
      ],
      "name": "setWhitelister",
      "outputs": [],
      "payable": false,
      "stateMutability": "nonpayable",
      "type": "function"
    },
    {
      "constant": false,
      "inputs": [
        {
          "name": "target",
          "type": "address"
        },
        {
          "name": "isWhitelisted",
          "type": "bool"
        }
      ],
      "name": "setWhitelisted",
      "outputs": [],
      "payable": false,
      "stateMutability": "nonpayable",
      "type": "function"
    },
    {
      "constant": false,
      "inputs": [
        {
          "name": "token",
          "type": "address"
        },
        {
          "name": "amount",
          "type": "uint256"
        }
      ],
      "name": "deposit",
      "outputs": [],
      "payable": true,
      "stateMutability": "payable",
      "type": "function"
    },
    {
      "constant": false,
      "inputs": [
        {
          "name": "token",
          "type": "address"
        },
        {
          "name": "amount",
          "type": "uint256"
        }
      ],
      "name": "withdraw",
      "outputs": [],
      "payable": false,
      "stateMutability": "nonpayable",
      "type": "function"
    },
    {
      "constant": true,
      "inputs": [
        {
          "name": "token",
          "type": "address"
        },
        {
          "name": "user",
          "type": "address"
        }
      ],
      "name": "balanceOf",
      "outputs": [
        {
          "name": "",
          "type": "uint256"
        }
      ],
      "payable": false,
      "stateMutability": "view",
      "type": "function"
    },
    {
      "constant": false,
      "inputs": [
        {
          "name": "tokenBuy",
          "type": "address"
        },
        {
          "name": "amountBuy",
          "type": "uint256"
        },
        {
          "name": "tokenSell",
          "type": "address"
        },
        {
          "name": "amountSell",
          "type": "uint256"
        },
        {
          "name": "expires",
          "type": "uint256"
        },
        {
          "name": "nonce",
          "type": "uint256"
        },
        {
          "name": "user",
          "type": "address"
        },
        {
          "name": "v",
          "type": "uint8"
        },
        {
          "name": "r",
          "type": "bytes32"
        },
        {
          "name": "s",
          "type": "bytes32"
        },
        {
          "name": "amount",
          "type": "uint256"
        }
      ],
      "name": "trade",
      "outputs": [],
      "payable": false,
      "stateMutability": "nonpayable",
      "type": "function"
    },
    {
      "constant": true,
      "inputs": [
        {
          "name": "tokenBuy",
          "type": "address"
        },
        {
          "name": "amountBuy",
          "type": "uint256"
        },
        {
          "name": "tokenSell",
          "type": "address"
        },
        {
          "name": "amountSell",
          "type": "uint256"
        },
        {
          "name": "expires",
          "type": "uint256"
        },
        {
          "name": "nonce",
          "type": "uint256"
        },
        {
          "name": "user",
          "type": "address"
        },
        {
          "name": "v",
          "type": "uint8"
        },
        {
          "name": "r",
          "type": "bytes32"
        },
        {
          "name": "s",
          "type": "bytes32"
        },
        {
          "name": "amount",
          "type": "uint256"
        },
        {
          "name": "sender",
          "type": "address"
        }
      ],
      "name": "testTrade",
      "outputs": [
        {
          "name": "code",
          "type": "uint8"
        }
      ],
      "payable": false,
      "stateMutability": "view",
      "type": "function"
    },
    {
      "constant": false,
      "inputs": [
        {
          "name": "tokenBuy",
          "type": "address"
        },
        {
          "name": "amountBuy",
          "type": "uint256"
        },
        {
          "name": "tokenSell",
          "type": "address"
        },
        {
          "name": "amountSell",
          "type": "uint256"
        },
        {
          "name": "expires",
          "type": "uint256"
        },
        {
          "name": "nonce",
          "type": "uint256"
        },
        {
          "name": "v",
          "type": "uint8"
        },
        {
          "name": "r",
          "type": "bytes32"
        },
        {
          "name": "s",
          "type": "bytes32"
        },
        {
          "name": "user",
          "type": "address"
        }
      ],
      "name": "cancelOrder",
      "outputs": [],
      "payable": false,
      "stateMutability": "nonpayable",
      "type": "function"
    }
  ],
  "bytecode": "0x6060604052341561000f57600080fd5b60405160408061311f83398101604052808051906020019091908051906020019091905050336000806101000a81548173ffffffffffffffffffffffffffffffffffffffff021916908373ffffffffffffffffffffffffffffffffffffffff16021790555081600660006101000a81548173ffffffffffffffffffffffffffffffffffffffff021916908373ffffffffffffffffffffffffffffffffffffffff16021790555080600760006101000a81548173ffffffffffffffffffffffffffffffffffffffff021916908373ffffffffffffffffffffffffffffffffffffffff16021790555060f7600860006101000a81548173ffffffffffffffffffffffffffffffffffffffff021916908373ffffffffffffffffffffffffffffffffffffffff16021790555060f8600960006101000a81548173ffffffffffffffffffffffffffffffffffffffff021916908373ffffffffffffffffffffffffffffffffffffffff1602179055505050612f948061018b6000396000f300606060405260043610610133576000357c0100000000000000000000000000000000000000000000000000000000900463ffffffff16806304efa227146101435780630674763c146101985780630a19b14a146101bd57806313af403514610287578063205d0063146102c057806321f9caef14610315578063429b62e5146103d657806347e7ef24146104275780634b023cf81461045e5780634b0bddd214610497578063508493bc146104db5780635e5c06e21461054757806365e17c9d146105ad5780636716a692146106025780636c86888b1461063b578063893d20e81461073e5780639281aa0b14610793578063c91b0149146107d7578063d29dd76d1461081b578063f318c75f1461086c578063f3fef3a3146108c1578063f7213db614610903578063f7888aec1461093e575b341561013e57600080fd5b600080fd5b341561014e57600080fd5b6101566109aa565b604051808273ffffffffffffffffffffffffffffffffffffffff1673ffffffffffffffffffffffffffffffffffffffff16815260200191505060405180910390f35b34156101a357600080fd5b6101bb600480803515159060200190919050506109d0565b005b34156101c857600080fd5b610285600480803573ffffffffffffffffffffffffffffffffffffffff1690602001909190803590602001909190803573ffffffffffffffffffffffffffffffffffffffff1690602001909190803590602001909190803590602001909190803590602001909190803573ffffffffffffffffffffffffffffffffffffffff1690602001909190803560ff1690602001909190803560001916906020019091908035600019169060200190919080359060200190919050506109df565b005b341561029257600080fd5b6102be600480803573ffffffffffffffffffffffffffffffffffffffff1690602001909190505061190c565b005b34156102cb57600080fd5b6102d3611a22565b604051808273ffffffffffffffffffffffffffffffffffffffff1673ffffffffffffffffffffffffffffffffffffffff16815260200191505060405180910390f35b341561032057600080fd5b6103d4600480803573ffffffffffffffffffffffffffffffffffffffff1690602001909190803590602001909190803573ffffffffffffffffffffffffffffffffffffffff1690602001909190803590602001909190803590602001909190803590602001909190803560ff16906020019091908035600019169060200190919080356000191690602001909190803573ffffffffffffffffffffffffffffffffffffffff16906020019091905050611a48565b005b34156103e157600080fd5b61040d600480803573ffffffffffffffffffffffffffffffffffffffff16906020019091905050611d49565b604051808215151515815260200191505060405180910390f35b61045c600480803573ffffffffffffffffffffffffffffffffffffffff16906020019091908035906020019091905050611d69565b005b341561046957600080fd5b610495600480803573ffffffffffffffffffffffffffffffffffffffff169060200190919050506121eb565b005b34156104a257600080fd5b6104d9600480803573ffffffffffffffffffffffffffffffffffffffff169060200190919080351515906020019091905050612287565b005b34156104e657600080fd5b610531600480803573ffffffffffffffffffffffffffffffffffffffff1690602001909190803573ffffffffffffffffffffffffffffffffffffffff1690602001909190505061233a565b6040518082815260200191505060405180910390f35b341561055257600080fd5b61057e600480803573ffffffffffffffffffffffffffffffffffffffff1690602001909190505061235f565b604051808515151515815260200184815260200183815260200182815260200194505050505060405180910390f35b34156105b857600080fd5b6105c061239c565b604051808273ffffffffffffffffffffffffffffffffffffffff1673ffffffffffffffffffffffffffffffffffffffff16815260200191505060405180910390f35b341561060d57600080fd5b610639600480803573ffffffffffffffffffffffffffffffffffffffff169060200190919050506123c2565b005b341561064657600080fd5b610722600480803573ffffffffffffffffffffffffffffffffffffffff1690602001909190803590602001909190803573ffffffffffffffffffffffffffffffffffffffff1690602001909190803590602001909190803590602001909190803590602001909190803573ffffffffffffffffffffffffffffffffffffffff1690602001909190803560ff16906020019091908035600019169060200190919080356000191690602001909190803590602001909190803573ffffffffffffffffffffffffffffffffffffffff1690602001909190505061245e565b604051808260ff1660ff16815260200191505060405180910390f35b341561074957600080fd5b610751612879565b604051808273ffffffffffffffffffffffffffffffffffffffff1673ffffffffffffffffffffffffffffffffffffffff16815260200191505060405180910390f35b341561079e57600080fd5b6107d5600480803573ffffffffffffffffffffffffffffffffffffffff1690602001909190803515159060200190919050506128a2565b005b34156107e257600080fd5b610819600480803573ffffffffffffffffffffffffffffffffffffffff169060200190919080351515906020019091905050612958565b005b341561082657600080fd5b610852600480803573ffffffffffffffffffffffffffffffffffffffff16906020019091905050612a0b565b604051808215151515815260200191505060405180910390f35b341561087757600080fd5b61087f612a2b565b604051808273ffffffffffffffffffffffffffffffffffffffff1673ffffffffffffffffffffffffffffffffffffffff16815260200191505060405180910390f35b34156108cc57600080fd5b610901600480803573ffffffffffffffffffffffffffffffffffffffff16906020019091908035906020019091905050612a51565b005b341561090e57600080fd5b610928600480803560001916906020019091905050612e53565b6040518082815260200191505060405180910390f35b341561094957600080fd5b610994600480803573ffffffffffffffffffffffffffffffffffffffff1690602001909190803573ffffffffffffffffffffffffffffffffffffffff16906020019091905050612e6b565b6040518082815260200191505060405180910390f35b600860009054906101000a900473ffffffffffffffffffffffffffffffffffffffff1681565b8015156109dc57600080fd5b50565b6000600260003373ffffffffffffffffffffffffffffffffffffffff1673ffffffffffffffffffffffffffffffffffffffff16815260200190815260200160002060000160009054906101000a900460ff161515610a3c57600080fd5b8b8b8b8b8b8b8b604051808873ffffffffffffffffffffffffffffffffffffffff1673ffffffffffffffffffffffffffffffffffffffff166c010000000000000000000000000281526014018781526020018673ffffffffffffffffffffffffffffffffffffffff1673ffffffffffffffffffffffffffffffffffffffff166c010000000000000000000000000281526014018581526020018481526020018381526020018273ffffffffffffffffffffffffffffffffffffffff1673ffffffffffffffffffffffffffffffffffffffff166c01000000000000000000000000028152601401975050505050505050604051809103902090508573ffffffffffffffffffffffffffffffffffffffff16600182878787604051600081526020016040526000604051602001526040518085600019166000191681526020018460ff1660ff16815260200183600019166000191681526020018260001916600019168152602001945050505050602060405160208103908084039060008661646e5a03f11515610bca57600080fd5b50506020604051035173ffffffffffffffffffffffffffffffffffffffff16148015610bf65750874311155b8015610c2657508a610c236005600084600019166000191681526020019081526020016000205484612ef2565b11155b8015610cae575081600160008e73ffffffffffffffffffffffffffffffffffffffff1673ffffffffffffffffffffffffffffffffffffffff16815260200190815260200160002060003373ffffffffffffffffffffffffffffffffffffffff1673ffffffffffffffffffffffffffffffffffffffff1681526020019081526020016000205410155b8015610d4a57508a610cc08a84612f1c565b811515610cc957fe5b04600160008c73ffffffffffffffffffffffffffffffffffffffff1673ffffffffffffffffffffffffffffffffffffffff16815260200190815260200160002060008873ffffffffffffffffffffffffffffffffffffffff1673ffffffffffffffffffffffffffffffffffffffff1681526020019081526020016000205410155b1515610d5557600080fd5b600760009054906101000a900473ffffffffffffffffffffffffffffffffffffffff1673ffffffffffffffffffffffffffffffffffffffff1663c5096a69600860009054906101000a900473ffffffffffffffffffffffffffffffffffffffff1633670de0b6b3a76400006000604051602001526040518463ffffffff167c0100000000000000000000000000000000000000000000000000000000028152600401808473ffffffffffffffffffffffffffffffffffffffff1673ffffffffffffffffffffffffffffffffffffffff1681526020018373ffffffffffffffffffffffffffffffffffffffff1673ffffffffffffffffffffffffffffffffffffffff1681526020018281526020019350505050602060405180830381600087803b1515610e8057600080fd5b6102c65a03f11515610e9157600080fd5b50505060405180519050600b81905550600760009054906101000a900473ffffffffffffffffffffffffffffffffffffffff1673ffffffffffffffffffffffffffffffffffffffff1663c5096a69600960009054906101000a900473ffffffffffffffffffffffffffffffffffffffff1688670de0b6b3a76400006000604051602001526040518463ffffffff167c0100000000000000000000000000000000000000000000000000000000028152600401808473ffffffffffffffffffffffffffffffffffffffff1673ffffffffffffffffffffffffffffffffffffffff1681526020018373ffffffffffffffffffffffffffffffffffffffff1673ffffffffffffffffffffffffffffffffffffffff1681526020018281526020019350505050602060405180830381600087803b1515610fcc57600080fd5b6102c65a03f11515610fdd57600080fd5b50505060405180519050600a81905550611073600160008e73ffffffffffffffffffffffffffffffffffffffff1673ffffffffffffffffffffffffffffffffffffffff16815260200190815260200160002060003373ffffffffffffffffffffffffffffffffffffffff1673ffffffffffffffffffffffffffffffffffffffff1681526020019081526020016000205483612f4f565b600160008e73ffffffffffffffffffffffffffffffffffffffff1673ffffffffffffffffffffffffffffffffffffffff16815260200190815260200160002060003373ffffffffffffffffffffffffffffffffffffffff1673ffffffffffffffffffffffffffffffffffffffff16815260200190815260200160002081905550670de0b6b3a764000061111283600b54670de0b6b3a764000003612f1c565b81151561111b57fe5b04600c819055506111aa600160008e73ffffffffffffffffffffffffffffffffffffffff1673ffffffffffffffffffffffffffffffffffffffff16815260200190815260200160002060008873ffffffffffffffffffffffffffffffffffffffff1673ffffffffffffffffffffffffffffffffffffffff16815260200190815260200160002054600c54612ef2565b600160008e73ffffffffffffffffffffffffffffffffffffffff1673ffffffffffffffffffffffffffffffffffffffff16815260200190815260200160002060008873ffffffffffffffffffffffffffffffffffffffff1673ffffffffffffffffffffffffffffffffffffffff16815260200190815260200160002081905550670de0b6b3a764000061123f83600b54612f1c565b81151561124857fe5b04600c819055506112f9600160008e73ffffffffffffffffffffffffffffffffffffffff1673ffffffffffffffffffffffffffffffffffffffff1681526020019081526020016000206000600660009054906101000a900473ffffffffffffffffffffffffffffffffffffffff1673ffffffffffffffffffffffffffffffffffffffff1673ffffffffffffffffffffffffffffffffffffffff16815260200190815260200160002054600c54612ef2565b600160008e73ffffffffffffffffffffffffffffffffffffffff1673ffffffffffffffffffffffffffffffffffffffff1681526020019081526020016000206000600660009054906101000a900473ffffffffffffffffffffffffffffffffffffffff1673ffffffffffffffffffffffffffffffffffffffff1673ffffffffffffffffffffffffffffffffffffffff168152602001908152602001600020819055508a6113a68a84612f1c565b8115156113af57fe5b04600c8190555061143e600160008c73ffffffffffffffffffffffffffffffffffffffff1673ffffffffffffffffffffffffffffffffffffffff16815260200190815260200160002060008873ffffffffffffffffffffffffffffffffffffffff1673ffffffffffffffffffffffffffffffffffffffff16815260200190815260200160002054600c54612f4f565b600160008c73ffffffffffffffffffffffffffffffffffffffff1673ffffffffffffffffffffffffffffffffffffffff16815260200190815260200160002060008873ffffffffffffffffffffffffffffffffffffffff1673ffffffffffffffffffffffffffffffffffffffff16815260200190815260200160002081905550670de0b6b3a76400008b6114e76114e1600a54670de0b6b3a7640000038d612f1c565b85612f1c565b8115156114f057fe5b048115156114fa57fe5b04600c81905550611589600160008c73ffffffffffffffffffffffffffffffffffffffff1673ffffffffffffffffffffffffffffffffffffffff16815260200190815260200160002060003373ffffffffffffffffffffffffffffffffffffffff1673ffffffffffffffffffffffffffffffffffffffff16815260200190815260200160002054600c54612ef2565b600160008c73ffffffffffffffffffffffffffffffffffffffff1673ffffffffffffffffffffffffffffffffffffffff16815260200190815260200160002060003373ffffffffffffffffffffffffffffffffffffffff1673ffffffffffffffffffffffffffffffffffffffff16815260200190815260200160002081905550670de0b6b3a76400008b611628611622600a548d612f1c565b85612f1c565b81151561163157fe5b0481151561163b57fe5b04600c819055506116ec600160008c73ffffffffffffffffffffffffffffffffffffffff1673ffffffffffffffffffffffffffffffffffffffff1681526020019081526020016000206000600660009054906101000a900473ffffffffffffffffffffffffffffffffffffffff1673ffffffffffffffffffffffffffffffffffffffff1673ffffffffffffffffffffffffffffffffffffffff16815260200190815260200160002054600c54612ef2565b600160008c73ffffffffffffffffffffffffffffffffffffffff1673ffffffffffffffffffffffffffffffffffffffff1681526020019081526020016000206000600660009054906101000a900473ffffffffffffffffffffffffffffffffffffffff1673ffffffffffffffffffffffffffffffffffffffff1673ffffffffffffffffffffffffffffffffffffffff168152602001908152602001600020819055506117b36005600083600019166000191681526020019081526020016000205483612ef2565b600560008360001916600019168152602001908152602001600020819055507f68381874bf7a1a19bfeecb18abbaa22f0fc7892cfec46e7dd4ea9b3688419d188c838c8e868e0281151561180357fe5b048a3387604051808873ffffffffffffffffffffffffffffffffffffffff1673ffffffffffffffffffffffffffffffffffffffff1681526020018781526020018673ffffffffffffffffffffffffffffffffffffffff1673ffffffffffffffffffffffffffffffffffffffff1681526020018581526020018473ffffffffffffffffffffffffffffffffffffffff1673ffffffffffffffffffffffffffffffffffffffff1681526020018373ffffffffffffffffffffffffffffffffffffffff1673ffffffffffffffffffffffffffffffffffffffff168152602001826000191660001916815260200197505050505050505060405180910390a1505050505050505050505050565b6119646000809054906101000a900473ffffffffffffffffffffffffffffffffffffffff1673ffffffffffffffffffffffffffffffffffffffff163373ffffffffffffffffffffffffffffffffffffffff16146109d0565b8073ffffffffffffffffffffffffffffffffffffffff166000809054906101000a900473ffffffffffffffffffffffffffffffffffffffff1673ffffffffffffffffffffffffffffffffffffffff167fcbf985117192c8f614a58aaf97226bb80a754772f5f6edf06f87c675f2e6c66360405160405180910390a3806000806101000a81548173ffffffffffffffffffffffffffffffffffffffff021916908373ffffffffffffffffffffffffffffffffffffffff16021790555050565b600960009054906101000a900473ffffffffffffffffffffffffffffffffffffffff1681565b60008a8a8a8a8a8a87604051808873ffffffffffffffffffffffffffffffffffffffff1673ffffffffffffffffffffffffffffffffffffffff166c010000000000000000000000000281526014018781526020018673ffffffffffffffffffffffffffffffffffffffff1673ffffffffffffffffffffffffffffffffffffffff166c010000000000000000000000000281526014018581526020018481526020018381526020018273ffffffffffffffffffffffffffffffffffffffff1673ffffffffffffffffffffffffffffffffffffffff166c01000000000000000000000000028152601401975050505050505050604051809103902090503373ffffffffffffffffffffffffffffffffffffffff16600182878787604051600081526020016040526000604051602001526040518085600019166000191681526020018460ff1660ff16815260200183600019166000191681526020018260001916600019168152602001945050505050602060405160208103908084039060008661646e5a03f11515611bd857600080fd5b50506020604051035173ffffffffffffffffffffffffffffffffffffffff16141515611c0357600080fd5b89600560008360001916600019168152602001908152602001600020819055507f1e0b760c386003e9cb9bcf4fcf3997886042859d9b6ed6320e804597fcdb28b08b8b8b8b8b8b338c8c8c604051808b73ffffffffffffffffffffffffffffffffffffffff1673ffffffffffffffffffffffffffffffffffffffff1681526020018a81526020018973ffffffffffffffffffffffffffffffffffffffff1673ffffffffffffffffffffffffffffffffffffffff1681526020018881526020018781526020018681526020018573ffffffffffffffffffffffffffffffffffffffff1673ffffffffffffffffffffffffffffffffffffffff1681526020018460ff1660ff168152602001836000191660001916815260200182600019166000191681526020019a505050505050505050505060405180910390a15050505050505050505050565b60046020528060005260406000206000915054906101000a900460ff1681565b600073ffffffffffffffffffffffffffffffffffffffff168273ffffffffffffffffffffffffffffffffffffffff161415611ea957611e24600160008073ffffffffffffffffffffffffffffffffffffffff1673ffffffffffffffffffffffffffffffffffffffff16815260200190815260200160002060003373ffffffffffffffffffffffffffffffffffffffff1673ffffffffffffffffffffffffffffffffffffffff1681526020019081526020016000205434612ef2565b600160008073ffffffffffffffffffffffffffffffffffffffff1673ffffffffffffffffffffffffffffffffffffffff16815260200190815260200160002060003373ffffffffffffffffffffffffffffffffffffffff1673ffffffffffffffffffffffffffffffffffffffff168152602001908152602001600020819055506120c4565b600034141515611eb857600080fd5b611f3e600160008473ffffffffffffffffffffffffffffffffffffffff1673ffffffffffffffffffffffffffffffffffffffff16815260200190815260200160002060003373ffffffffffffffffffffffffffffffffffffffff1673ffffffffffffffffffffffffffffffffffffffff1681526020019081526020016000205482612ef2565b600160008473ffffffffffffffffffffffffffffffffffffffff1673ffffffffffffffffffffffffffffffffffffffff16815260200190815260200160002060003373ffffffffffffffffffffffffffffffffffffffff1673ffffffffffffffffffffffffffffffffffffffff168152602001908152602001600020819055508173ffffffffffffffffffffffffffffffffffffffff166323b872dd3330846000604051602001526040518463ffffffff167c0100000000000000000000000000000000000000000000000000000000028152600401808473ffffffffffffffffffffffffffffffffffffffff1673ffffffffffffffffffffffffffffffffffffffff1681526020018373ffffffffffffffffffffffffffffffffffffffff1673ffffffffffffffffffffffffffffffffffffffff1681526020018281526020019350505050602060405180830381600087803b151561209d57600080fd5b6102c65a03f115156120ae57600080fd5b5050506040518051905015156120c357600080fd5b5b7fdcbc1c05240f31ff3ad067ef1ee35ce4997762752e3a095284754544f4c709d7823383600160008773ffffffffffffffffffffffffffffffffffffffff1673ffffffffffffffffffffffffffffffffffffffff16815260200190815260200160002060003373ffffffffffffffffffffffffffffffffffffffff1673ffffffffffffffffffffffffffffffffffffffff16815260200190815260200160002054604051808573ffffffffffffffffffffffffffffffffffffffff1673ffffffffffffffffffffffffffffffffffffffff1681526020018473ffffffffffffffffffffffffffffffffffffffff1673ffffffffffffffffffffffffffffffffffffffff16815260200183815260200182815260200194505050505060405180910390a15050565b6122436000809054906101000a900473ffffffffffffffffffffffffffffffffffffffff1673ffffffffffffffffffffffffffffffffffffffff163373ffffffffffffffffffffffffffffffffffffffff16146109d0565b80600660006101000a81548173ffffffffffffffffffffffffffffffffffffffff021916908373ffffffffffffffffffffffffffffffffffffffff16021790555050565b6122df6000809054906101000a900473ffffffffffffffffffffffffffffffffffffffff1673ffffffffffffffffffffffffffffffffffffffff163373ffffffffffffffffffffffffffffffffffffffff16146109d0565b80600460008473ffffffffffffffffffffffffffffffffffffffff1673ffffffffffffffffffffffffffffffffffffffff16815260200190815260200160002060006101000a81548160ff0219169083151502179055505050565b6001602052816000526040600020602052806000526040600020600091509150505481565b60026020528060005260406000206000915090508060000160009054906101000a900460ff16908060010154908060020154908060030154905084565b600660009054906101000a900473ffffffffffffffffffffffffffffffffffffffff1681565b61241a6000809054906101000a900473ffffffffffffffffffffffffffffffffffffffff1673ffffffffffffffffffffffffffffffffffffffff163373ffffffffffffffffffffffffffffffffffffffff16146109d0565b80600760006101000a81548173ffffffffffffffffffffffffffffffffffffffff021916908373ffffffffffffffffffffffffffffffffffffffff16021790555050565b60008c8c8c8c8c8c8c604051808873ffffffffffffffffffffffffffffffffffffffff1673ffffffffffffffffffffffffffffffffffffffff166c010000000000000000000000000281526014018781526020018673ffffffffffffffffffffffffffffffffffffffff1673ffffffffffffffffffffffffffffffffffffffff166c010000000000000000000000000281526014018581526020018481526020018381526020018273ffffffffffffffffffffffffffffffffffffffff1673ffffffffffffffffffffffffffffffffffffffff166c010000000000000000000000000281526014019750505050505050506040518091039020600d816000191690555082600160008f73ffffffffffffffffffffffffffffffffffffffff1673ffffffffffffffffffffffffffffffffffffffff16815260200190815260200160002060008473ffffffffffffffffffffffffffffffffffffffff1673ffffffffffffffffffffffffffffffffffffffff1681526020019081526020016000205410156125ee5760019050612869565b600260008373ffffffffffffffffffffffffffffffffffffffff1673ffffffffffffffffffffffffffffffffffffffff16815260200190815260200160002060000160009054906101000a900460ff16151561264d5760029050612869565b600260008873ffffffffffffffffffffffffffffffffffffffff1673ffffffffffffffffffffffffffffffffffffffff16815260200190815260200160002060000160009054906101000a900460ff1615156126ac5760039050612869565b8673ffffffffffffffffffffffffffffffffffffffff166001600d54888888604051600081526020016040526000604051602001526040518085600019166000191681526020018460ff1660ff16815260200183600019166000191681526020018260001916600019168152602001945050505050602060405160208103908084039060008661646e5a03f1151561274357600080fd5b50506020604051035173ffffffffffffffffffffffffffffffffffffffff161415156127725760049050612869565b8b61277d8b85612f1c565b81151561278657fe5b04600e81905550600e54600160008d73ffffffffffffffffffffffffffffffffffffffff1673ffffffffffffffffffffffffffffffffffffffff16815260200190815260200160002060008973ffffffffffffffffffffffffffffffffffffffff1673ffffffffffffffffffffffffffffffffffffffff16815260200190815260200160002054101561281c5760059050612869565b8843111561282d5760069050612869565b8b61285560056000600d54600019166000191681526020019081526020016000205485612ef2565b11156128645760079050612869565b600090505b9c9b505050505050505050505050565b60008060009054906101000a900473ffffffffffffffffffffffffffffffffffffffff16905090565b600360003373ffffffffffffffffffffffffffffffffffffffff1673ffffffffffffffffffffffffffffffffffffffff16815260200190815260200160002060009054906101000a900460ff1615156128fa57600080fd5b80600260008473ffffffffffffffffffffffffffffffffffffffff1673ffffffffffffffffffffffffffffffffffffffff16815260200190815260200160002060000160006101000a81548160ff0219169083151502179055505050565b6129b06000809054906101000a900473ffffffffffffffffffffffffffffffffffffffff1673ffffffffffffffffffffffffffffffffffffffff163373ffffffffffffffffffffffffffffffffffffffff16146109d0565b80600360008473ffffffffffffffffffffffffffffffffffffffff1673ffffffffffffffffffffffffffffffffffffffff16815260200190815260200160002060006101000a81548160ff0219169083151502179055505050565b60036020528060005260406000206000915054906101000a900460ff1681565b600760009054906101000a900473ffffffffffffffffffffffffffffffffffffffff1681565b80600160008473ffffffffffffffffffffffffffffffffffffffff1673ffffffffffffffffffffffffffffffffffffffff16815260200190815260200160002060003373ffffffffffffffffffffffffffffffffffffffff1673ffffffffffffffffffffffffffffffffffffffff168152602001908152602001600020541015612ada57600080fd5b612b60600160008473ffffffffffffffffffffffffffffffffffffffff1673ffffffffffffffffffffffffffffffffffffffff16815260200190815260200160002060003373ffffffffffffffffffffffffffffffffffffffff1673ffffffffffffffffffffffffffffffffffffffff1681526020019081526020016000205482612f4f565b600160008473ffffffffffffffffffffffffffffffffffffffff1673ffffffffffffffffffffffffffffffffffffffff16815260200190815260200160002060003373ffffffffffffffffffffffffffffffffffffffff1673ffffffffffffffffffffffffffffffffffffffff16815260200190815260200160002081905550600073ffffffffffffffffffffffffffffffffffffffff168273ffffffffffffffffffffffffffffffffffffffff161415612c5a573373ffffffffffffffffffffffffffffffffffffffff166108fc829081150290604051600060405180830381858888f193505050501515612c5557600080fd5b612d2c565b8173ffffffffffffffffffffffffffffffffffffffff1663a9059cbb33836000604051602001526040518363ffffffff167c0100000000000000000000000000000000000000000000000000000000028152600401808373ffffffffffffffffffffffffffffffffffffffff1673ffffffffffffffffffffffffffffffffffffffff16815260200182815260200192505050602060405180830381600087803b1515612d0557600080fd5b6102c65a03f11515612d1657600080fd5b505050604051805190501515612d2b57600080fd5b5b7ff341246adaac6f497bc2a656f546ab9e182111d630394f0c57c710a59a2cb567823383600160008773ffffffffffffffffffffffffffffffffffffffff1673ffffffffffffffffffffffffffffffffffffffff16815260200190815260200160002060003373ffffffffffffffffffffffffffffffffffffffff1673ffffffffffffffffffffffffffffffffffffffff16815260200190815260200160002054604051808573ffffffffffffffffffffffffffffffffffffffff1673ffffffffffffffffffffffffffffffffffffffff1681526020018473ffffffffffffffffffffffffffffffffffffffff1673ffffffffffffffffffffffffffffffffffffffff16815260200183815260200182815260200194505050505060405180910390a15050565b60056020528060005260406000206000915090505481565b6000600160008473ffffffffffffffffffffffffffffffffffffffff1673ffffffffffffffffffffffffffffffffffffffff16815260200190815260200160002060008373ffffffffffffffffffffffffffffffffffffffff1673ffffffffffffffffffffffffffffffffffffffff16815260200190815260200160002054905092915050565b6000808284019050612f12848210158015612f0d5750838210155b6109d0565b8091505092915050565b6000808284029050612f456000851480612f405750838583811515612f3d57fe5b04145b6109d0565b8091505092915050565b6000612f5d838311156109d0565b8183039050929150505600a165627a7a723058200917499086e8e49e77ad65f45c23220ca2b6524363fbb66da6b5eda0d1bfbc720029",
  "source": "pragma solidity ^0.4.6;\nimport \"./lib/Math.sol\";\nimport \"./lib/Owned.sol\";\nimport \"./interface/Token.sol\";\nimport \"./DVIP.sol\";\n\ncontract ExchangeWhitelist is Math, Owned {\n\n  mapping (address => mapping (address => uint256)) public tokens; //mapping of token addresses to mapping of account balances\n\n  struct Account {\n    bool authorized;\n    uint256 tier;\n    uint256 resetWithdrawal;\n    uint256 withdrawn;\n  }\n\n  mapping (address => Account) public accounts;\n  mapping (address => bool) public whitelistAdmins;\n  mapping (address => bool) public admins;\n  //ether balances are held in the token=0 account\n  mapping (bytes32 => uint256) public orderFills;\n  address public feeAccount;\n  address public dvipAddress;\n  address public feeMakeExporter;\n  address public feeTakeExporter;\n  event Order(address tokenBuy, uint256 amountBuy, address tokenSell, uint256 amountSell, uint256 expires, uint256 nonce, address user, uint8 v, bytes32 r, bytes32 s);\n  event Cancel(address tokenBuy, uint256 amountBuy, address tokenSell, uint256 amountSell, uint256 expires, uint256 nonce, address user, uint8 v, bytes32 r, bytes32 s);\n  event Trade(address tokenBuy, uint256 amountBuy, address tokenSell, uint256 amountSell, address get, address give, bytes32 hash);\n  event Deposit(address token, address user, uint256 amount, uint256 balance);\n  event Withdraw(address token, address user, uint256 amount, uint256 balance);\n\n  function ExchangeWhitelist(address feeAccount_, address dvipAddress_) {\n    feeAccount = feeAccount_;\n    dvipAddress = dvipAddress_;\n    feeMakeExporter = 0x00000000000000000000000000000000000000f7;\n    feeTakeExporter = 0x00000000000000000000000000000000000000f8;\n  }\n\n  function setFeeAccount(address feeAccount_) onlyOwner {\n    feeAccount = feeAccount_;\n  }\n\n  function setDVIP(address dvipAddress_) onlyOwner {\n    dvipAddress = dvipAddress_;\n  }\n\n  function setAdmin(address admin, bool isAdmin) onlyOwner {\n    admins[admin] = isAdmin;\n  }\n\n  function setWhitelister(address whitelister, bool isWhitelister) onlyOwner {\n    whitelistAdmins[whitelister] = isWhitelister;\n  }\n\n  modifier onlyWhitelister {\n    if (!whitelistAdmins[msg.sender]) throw;\n    _;\n  }\n\n  modifier onlyAdmin {\n    if (msg.sender != owner && !admins[msg.sender]) throw;\n    _;\n  }\n  function setWhitelisted(address target, bool isWhitelisted) onlyWhitelister {\n    accounts[target].authorized = isWhitelisted;\n  }\n  modifier onlyWhitelisted {\n    if (!accounts[msg.sender].authorized) throw;\n    _;\n  }\n\n  function() {\n    throw;\n  }\n\n  function deposit(address token, uint256 amount) payable {\n    if (token == address(0)) {\n      tokens[address(0)][msg.sender] = safeAdd(tokens[address(0)][msg.sender], msg.value);\n    } else {\n      if (msg.value != 0) throw;\n      tokens[token][msg.sender] = safeAdd(tokens[token][msg.sender], amount);\n      if (!Token(token).transferFrom(msg.sender, this, amount)) throw;\n    }\n    Deposit(token, msg.sender, amount, tokens[token][msg.sender]);\n  }\n\n  function withdraw(address token, uint256 amount) {\n    if (tokens[token][msg.sender] < amount) throw;\n    tokens[token][msg.sender] = safeSub(tokens[token][msg.sender], amount);\n    if (token == address(0)) {\n      if (!msg.sender.send(amount)) throw;\n    } else {\n      if (!Token(token).transfer(msg.sender, amount)) throw;\n    }\n    Withdraw(token, msg.sender, amount, tokens[token][msg.sender]);\n  }\n\n  function balanceOf(address token, address user) constant returns (uint256) {\n    return tokens[token][user];\n  }\n\n  uint256 internal feeTake;\n  uint256 internal feeMake;\n  uint256 internal feeTerm;\n\n  function trade(address tokenBuy, uint256 amountBuy, address tokenSell, uint256 amountSell, uint256 expires, uint256 nonce, address user, uint8 v, bytes32 r, bytes32 s, uint256 amount) onlyWhitelisted {\n    //amount is in amountBuy terms\n    bytes32 hash = sha3(tokenBuy, amountBuy, tokenSell, amountSell, expires, nonce, user);\n    if (!(\n      ecrecover(hash,v,r,s) == user &&\n      block.number <= expires &&\n      safeAdd(orderFills[hash], amount) <= amountBuy &&\n      tokens[tokenBuy][msg.sender] >= amount &&\n      tokens[tokenSell][user] >= safeMul(amountSell, amount) / amountBuy\n    )) throw;\n    feeMake = DVIP(dvipAddress).feeFor(feeMakeExporter, msg.sender, 1 ether);\n    feeTake = DVIP(dvipAddress).feeFor(feeTakeExporter, user, 1 ether);\n    tokens[tokenBuy][msg.sender] = safeSub(tokens[tokenBuy][msg.sender], amount);\n    feeTerm = safeMul(amount, ((1 ether) - feeMake)) / (1 ether);\n    tokens[tokenBuy][user] = safeAdd(tokens[tokenBuy][user], feeTerm);\n    feeTerm = safeMul(amount, feeMake) / (1 ether);\n    tokens[tokenBuy][feeAccount] = safeAdd(tokens[tokenBuy][feeAccount], feeTerm);\n    feeTerm = safeMul(amountSell, amount) / amountBuy;\n    tokens[tokenSell][user] = safeSub(tokens[tokenSell][user], feeTerm);\n    feeTerm = safeMul(safeMul(((1 ether) - feeTake), amountSell), amount) / amountBuy / (1 ether);\n    tokens[tokenSell][msg.sender] = safeAdd(tokens[tokenSell][msg.sender], feeTerm);\n    feeTerm = safeMul(safeMul(feeTake, amountSell), amount) / amountBuy / (1 ether);\n    tokens[tokenSell][feeAccount] = safeAdd(tokens[tokenSell][feeAccount], feeTerm);\n    orderFills[hash] = safeAdd(orderFills[hash], amount);\n    Trade(tokenBuy, amount, tokenSell, amountSell * amount / amountBuy, user, msg.sender, hash);\n  }\n\n  bytes32 internal testHash;\n  uint256 internal amountSelln;\n\n  function testTrade(address tokenBuy, uint256 amountBuy, address tokenSell, uint256 amountSell, uint256 expires, uint256 nonce, address user, uint8 v, bytes32 r, bytes32 s, uint256 amount, address sender) constant returns (uint8 code) {\n    testHash = sha3(tokenBuy, amountBuy, tokenSell, amountSell, expires, nonce, user);\n    if (tokens[tokenBuy][sender] < amount) return 1;\n    if (!accounts[sender].authorized) return 2; \n    if (!accounts[user].authorized) return 3;\n    if (ecrecover(testHash, v, r, s) != user) return 4;\n    amountSelln = safeMul(amountSell, amount) / amountBuy;\n    if (tokens[tokenSell][user] < amountSelln) return 5;\n    if (block.number > expires) return 6;\n    if (safeAdd(orderFills[testHash], amount) > amountBuy) return 7;\n    return 0;\n  }\n  function cancelOrder(address tokenBuy, uint256 amountBuy, address tokenSell, uint256 amountSell, uint256 expires, uint256 nonce, uint8 v, bytes32 r, bytes32 s, address user) {\n    bytes32 hash = sha3(tokenBuy, amountBuy, tokenSell, amountSell, expires, nonce, user);\n    if (ecrecover(hash,v,r,s) != msg.sender) throw;\n    orderFills[hash] = amountBuy;\n    Cancel(tokenBuy, amountBuy, tokenSell, amountSell, expires, nonce, msg.sender, v, r, s);\n  }\n}\n",
  "sourcePath": "/Users/drewstone/src/eth/truffle-abi/contracts/ExchangeWhitelist.sol",
  "compiler": {
    "name": "solc",
    "version": "0.4.19+commit.c4cbbb05.Emscripten.clang"
  },
  "schemaVersion": "2.0.0",
  "updatedAt": "2018-07-09T23:07:42.788Z"
}