{
  "contractName": "Exchange",
  "abi": [
    {
      "constant": true,
      "inputs": [],
      "name": "feeMakeExporter",
      "outputs": [
        {
          "name": "",
          "type": "address"
        }
      ],
      "payable": false,
      "stateMutability": "view",
      "type": "function"
    },
    {
      "constant": false,
      "inputs": [
        {
          "name": "assertion",
          "type": "bool"
        }
      ],
      "name": "assert",
      "outputs": [],
      "payable": false,
      "stateMutability": "nonpayable",
      "type": "function"
    },
    {
      "constant": false,
      "inputs": [
        {
          "name": "newOwner",
          "type": "address"
        }
      ],
      "name": "setOwner",
      "outputs": [],
      "payable": false,
      "stateMutability": "nonpayable",
      "type": "function"
    },
    {
      "constant": true,
      "inputs": [],
      "name": "feeTakeExporter",
      "outputs": [
        {
          "name": "",
          "type": "address"
        }
      ],
      "payable": false,
      "stateMutability": "view",
      "type": "function"
    },
    {
      "constant": true,
      "inputs": [
        {
          "name": "",
          "type": "address"
        }
      ],
      "name": "admins",
      "outputs": [
        {
          "name": "",
          "type": "bool"
        }
      ],
      "payable": false,
      "stateMutability": "view",
      "type": "function"
    },
    {
      "constant": true,
      "inputs": [
        {
          "name": "",
          "type": "address"
        },
        {
          "name": "",
          "type": "address"
        }
      ],
      "name": "tokens",
      "outputs": [
        {
          "name": "",
          "type": "uint256"
        }
      ],
      "payable": false,
      "stateMutability": "view",
      "type": "function"
    },
    {
      "constant": true,
      "inputs": [
        {
          "name": "",
          "type": "address"
        }
      ],
      "name": "accounts",
      "outputs": [
        {
          "name": "authorized",
          "type": "bool"
        },
        {
          "name": "tier",
          "type": "uint256"
        },
        {
          "name": "resetWithdrawal",
          "type": "uint256"
        },
        {
          "name": "withdrawn",
          "type": "uint256"
        }
      ],
      "payable": false,
      "stateMutability": "view",
      "type": "function"
    },
    {
      "constant": true,
      "inputs": [],
      "name": "feeAccount",
      "outputs": [
        {
          "name": "",
          "type": "address"
        }
      ],
      "payable": false,
      "stateMutability": "view",
      "type": "function"
    },
    {
      "constant": false,
      "inputs": [],
      "name": "getOwner",
      "outputs": [
        {
          "name": "out",
          "type": "address"
        }
      ],
      "payable": false,
      "stateMutability": "nonpayable",
      "type": "function"
    },
    {
      "constant": true,
      "inputs": [
        {
          "name": "",
          "type": "address"
        }
      ],
      "name": "whitelistAdmins",
      "outputs": [
        {
          "name": "",
          "type": "bool"
        }
      ],
      "payable": false,
      "stateMutability": "view",
      "type": "function"
    },
    {
      "constant": true,
      "inputs": [],
      "name": "dvipAddress",
      "outputs": [
        {
          "name": "",
          "type": "address"
        }
      ],
      "payable": false,
      "stateMutability": "view",
      "type": "function"
    },
    {
      "constant": true,
      "inputs": [
        {
          "name": "",
          "type": "bytes32"
        }
      ],
      "name": "orderFills",
      "outputs": [
        {
          "name": "",
          "type": "uint256"
        }
      ],
      "payable": false,
      "stateMutability": "view",
      "type": "function"
    },
    {
      "inputs": [
        {
          "name": "feeAccount_",
          "type": "address"
        },
        {
          "name": "dvipAddress_",
          "type": "address"
        }
      ],
      "payable": false,
      "stateMutability": "nonpayable",
      "type": "constructor"
    },
    {
      "payable": false,
      "stateMutability": "nonpayable",
      "type": "fallback"
    },
    {
      "anonymous": false,
      "inputs": [
        {
          "indexed": false,
          "name": "tokenBuy",
          "type": "address"
        },
        {
          "indexed": false,
          "name": "amountBuy",
          "type": "uint256"
        },
        {
          "indexed": false,
          "name": "tokenSell",
          "type": "address"
        },
        {
          "indexed": false,
          "name": "amountSell",
          "type": "uint256"
        },
        {
          "indexed": false,
          "name": "expires",
          "type": "uint256"
        },
        {
          "indexed": false,
          "name": "nonce",
          "type": "uint256"
        },
        {
          "indexed": false,
          "name": "user",
          "type": "address"
        },
        {
          "indexed": false,
          "name": "v",
          "type": "uint8"
        },
        {
          "indexed": false,
          "name": "r",
          "type": "bytes32"
        },
        {
          "indexed": false,
          "name": "s",
          "type": "bytes32"
        }
      ],
      "name": "Order",
      "type": "event"
    },
    {
      "anonymous": false,
      "inputs": [
        {
          "indexed": false,
          "name": "tokenBuy",
          "type": "address"
        },
        {
          "indexed": false,
          "name": "amountBuy",
          "type": "uint256"
        },
        {
          "indexed": false,
          "name": "tokenSell",
          "type": "address"
        },
        {
          "indexed": false,
          "name": "amountSell",
          "type": "uint256"
        },
        {
          "indexed": false,
          "name": "expires",
          "type": "uint256"
        },
        {
          "indexed": false,
          "name": "nonce",
          "type": "uint256"
        },
        {
          "indexed": false,
          "name": "user",
          "type": "address"
        },
        {
          "indexed": false,
          "name": "v",
          "type": "uint8"
        },
        {
          "indexed": false,
          "name": "r",
          "type": "bytes32"
        },
        {
          "indexed": false,
          "name": "s",
          "type": "bytes32"
        }
      ],
      "name": "Cancel",
      "type": "event"
    },
    {
      "anonymous": false,
      "inputs": [
        {
          "indexed": false,
          "name": "tokenBuy",
          "type": "address"
        },
        {
          "indexed": false,
          "name": "amountBuy",
          "type": "uint256"
        },
        {
          "indexed": false,
          "name": "tokenSell",
          "type": "address"
        },
        {
          "indexed": false,
          "name": "amountSell",
          "type": "uint256"
        },
        {
          "indexed": false,
          "name": "get",
          "type": "address"
        },
        {
          "indexed": false,
          "name": "give",
          "type": "address"
        },
        {
          "indexed": false,
          "name": "hash",
          "type": "bytes32"
        }
      ],
      "name": "Trade",
      "type": "event"
    },
    {
      "anonymous": false,
      "inputs": [
        {
          "indexed": false,
          "name": "token",
          "type": "address"
        },
        {
          "indexed": false,
          "name": "user",
          "type": "address"
        },
        {
          "indexed": false,
          "name": "amount",
          "type": "uint256"
        },
        {
          "indexed": false,
          "name": "balance",
          "type": "uint256"
        }
      ],
      "name": "Deposit",
      "type": "event"
    },
    {
      "anonymous": false,
      "inputs": [
        {
          "indexed": false,
          "name": "token",
          "type": "address"
        },
        {
          "indexed": false,
          "name": "user",
          "type": "address"
        },
        {
          "indexed": false,
          "name": "amount",
          "type": "uint256"
        },
        {
          "indexed": false,
          "name": "balance",
          "type": "uint256"
        }
      ],
      "name": "Withdraw",
      "type": "event"
    },
    {
      "anonymous": false,
      "inputs": [
        {
          "indexed": true,
          "name": "previousOwner",
          "type": "address"
        },
        {
          "indexed": true,
          "name": "newOwner",
          "type": "address"
        }
      ],
      "name": "SetOwner",
      "type": "event"
    },
    {
      "constant": false,
      "inputs": [
        {
          "name": "feeAccount_",
          "type": "address"
        }
      ],
      "name": "setFeeAccount",
      "outputs": [],
      "payable": false,
      "stateMutability": "nonpayable",
      "type": "function"
    },
    {
      "constant": false,
      "inputs": [
        {
          "name": "dvipAddress_",
          "type": "address"
        }
      ],
      "name": "setDVIP",
      "outputs": [],
      "payable": false,
      "stateMutability": "nonpayable",
      "type": "function"
    },
    {
      "constant": false,
      "inputs": [
        {
          "name": "admin",
          "type": "address"
        },
        {
          "name": "isAdmin",
          "type": "bool"
        }
      ],
      "name": "setAdmin",
      "outputs": [],
      "payable": false,
      "stateMutability": "nonpayable",
      "type": "function"
    },
    {
      "constant": false,
      "inputs": [
        {
          "name": "whitelister",
          "type": "address"
        },
        {
          "name": "isWhitelister",
          "type": "bool"
        }
      ],
      "name": "setWhitelister",
      "outputs": [],
      "payable": false,
      "stateMutability": "nonpayable",
      "type": "function"
    },
    {
      "constant": false,
      "inputs": [
        {
          "name": "target",
          "type": "address"
        },
        {
          "name": "isWhitelisted",
          "type": "bool"
        }
      ],
      "name": "setWhitelisted",
      "outputs": [],
      "payable": false,
      "stateMutability": "nonpayable",
      "type": "function"
    },
    {
      "constant": false,
      "inputs": [
        {
          "name": "token",
          "type": "address"
        },
        {
          "name": "amount",
          "type": "uint256"
        }
      ],
      "name": "deposit",
      "outputs": [],
      "payable": true,
      "stateMutability": "payable",
      "type": "function"
    },
    {
      "constant": false,
      "inputs": [
        {
          "name": "token",
          "type": "address"
        },
        {
          "name": "amount",
          "type": "uint256"
        }
      ],
      "name": "withdraw",
      "outputs": [],
      "payable": false,
      "stateMutability": "nonpayable",
      "type": "function"
    },
    {
      "constant": false,
      "inputs": [
        {
          "name": "tokenBuy",
          "type": "address"
        },
        {
          "name": "amountBuy",
          "type": "uint256"
        },
        {
          "name": "tokenSell",
          "type": "address"
        },
        {
          "name": "amountSell",
          "type": "uint256"
        },
        {
          "name": "expires",
          "type": "uint256"
        },
        {
          "name": "nonce",
          "type": "uint256"
        },
        {
          "name": "user",
          "type": "address"
        },
        {
          "name": "v",
          "type": "uint8"
        },
        {
          "name": "r",
          "type": "bytes32"
        },
        {
          "name": "s",
          "type": "bytes32"
        },
        {
          "name": "amount",
          "type": "uint256"
        }
      ],
      "name": "trade",
      "outputs": [],
      "payable": false,
      "stateMutability": "nonpayable",
      "type": "function"
    },
    {
      "constant": true,
      "inputs": [
        {
          "name": "tokenBuy",
          "type": "address"
        },
        {
          "name": "amountBuy",
          "type": "uint256"
        },
        {
          "name": "tokenSell",
          "type": "address"
        },
        {
          "name": "amountSell",
          "type": "uint256"
        },
        {
          "name": "expires",
          "type": "uint256"
        },
        {
          "name": "nonce",
          "type": "uint256"
        },
        {
          "name": "user",
          "type": "address"
        },
        {
          "name": "v",
          "type": "uint8"
        },
        {
          "name": "r",
          "type": "bytes32"
        },
        {
          "name": "s",
          "type": "bytes32"
        },
        {
          "name": "amount",
          "type": "uint256"
        },
        {
          "name": "sender",
          "type": "address"
        }
      ],
      "name": "testTrade",
      "outputs": [
        {
          "name": "code",
          "type": "uint8"
        }
      ],
      "payable": false,
      "stateMutability": "view",
      "type": "function"
    },
    {
      "constant": false,
      "inputs": [
        {
          "name": "tokenBuy",
          "type": "address"
        },
        {
          "name": "amountBuy",
          "type": "uint256"
        },
        {
          "name": "tokenSell",
          "type": "address"
        },
        {
          "name": "amountSell",
          "type": "uint256"
        },
        {
          "name": "expires",
          "type": "uint256"
        },
        {
          "name": "nonce",
          "type": "uint256"
        },
        {
          "name": "v",
          "type": "uint8"
        },
        {
          "name": "r",
          "type": "bytes32"
        },
        {
          "name": "s",
          "type": "bytes32"
        },
        {
          "name": "user",
          "type": "address"
        }
      ],
      "name": "cancelOrder",
      "outputs": [],
      "payable": false,
      "stateMutability": "nonpayable",
      "type": "function"
    }
  ],
  "bytecode": "0x6060604052341561000f57600080fd5b604051604080612f0883398101604052808051906020019091908051906020019091905050336000806101000a81548173ffffffffffffffffffffffffffffffffffffffff021916908373ffffffffffffffffffffffffffffffffffffffff16021790555081600660006101000a81548173ffffffffffffffffffffffffffffffffffffffff021916908373ffffffffffffffffffffffffffffffffffffffff16021790555080600760006101000a81548173ffffffffffffffffffffffffffffffffffffffff021916908373ffffffffffffffffffffffffffffffffffffffff16021790555060f7600860006101000a81548173ffffffffffffffffffffffffffffffffffffffff021916908373ffffffffffffffffffffffffffffffffffffffff16021790555060f8600960006101000a81548173ffffffffffffffffffffffffffffffffffffffff021916908373ffffffffffffffffffffffffffffffffffffffff1602179055505050612d7d8061018b6000396000f300606060405260043610610128576000357c0100000000000000000000000000000000000000000000000000000000900463ffffffff16806304efa227146101385780630674763c1461018d5780630a19b14a146101b257806313af40351461027c578063205d0063146102b557806321f9caef1461030a578063429b62e5146103cb57806347e7ef241461041c5780634b023cf8146104535780634b0bddd21461048c578063508493bc146104d05780635e5c06e21461053c57806365e17c9d146105a25780636716a692146105f75780636c86888b14610630578063893d20e8146107335780639281aa0b14610788578063c91b0149146107cc578063d29dd76d14610810578063f318c75f14610861578063f3fef3a3146108b6578063f7213db6146108f8575b341561013357600080fd5b600080fd5b341561014357600080fd5b61014b610933565b604051808273ffffffffffffffffffffffffffffffffffffffff1673ffffffffffffffffffffffffffffffffffffffff16815260200191505060405180910390f35b341561019857600080fd5b6101b060048080351515906020019091905050610959565b005b34156101bd57600080fd5b61027a600480803573ffffffffffffffffffffffffffffffffffffffff1690602001909190803590602001909190803573ffffffffffffffffffffffffffffffffffffffff1690602001909190803590602001909190803590602001909190803590602001909190803573ffffffffffffffffffffffffffffffffffffffff1690602001909190803560ff169060200190919080356000191690602001909190803560001916906020019091908035906020019091905050610968565b005b341561028757600080fd5b6102b3600480803573ffffffffffffffffffffffffffffffffffffffff1690602001909190505061183a565b005b34156102c057600080fd5b6102c8611950565b604051808273ffffffffffffffffffffffffffffffffffffffff1673ffffffffffffffffffffffffffffffffffffffff16815260200191505060405180910390f35b341561031557600080fd5b6103c9600480803573ffffffffffffffffffffffffffffffffffffffff1690602001909190803590602001909190803573ffffffffffffffffffffffffffffffffffffffff1690602001909190803590602001909190803590602001909190803590602001909190803560ff16906020019091908035600019169060200190919080356000191690602001909190803573ffffffffffffffffffffffffffffffffffffffff16906020019091905050611976565b005b34156103d657600080fd5b610402600480803573ffffffffffffffffffffffffffffffffffffffff16906020019091905050611c77565b604051808215151515815260200191505060405180910390f35b610451600480803573ffffffffffffffffffffffffffffffffffffffff16906020019091908035906020019091905050611c97565b005b341561045e57600080fd5b61048a600480803573ffffffffffffffffffffffffffffffffffffffff16906020019091905050612119565b005b341561049757600080fd5b6104ce600480803573ffffffffffffffffffffffffffffffffffffffff1690602001909190803515159060200190919050506121b5565b005b34156104db57600080fd5b610526600480803573ffffffffffffffffffffffffffffffffffffffff1690602001909190803573ffffffffffffffffffffffffffffffffffffffff16906020019091905050612268565b6040518082815260200191505060405180910390f35b341561054757600080fd5b610573600480803573ffffffffffffffffffffffffffffffffffffffff1690602001909190505061228d565b604051808515151515815260200184815260200183815260200182815260200194505050505060405180910390f35b34156105ad57600080fd5b6105b56122ca565b604051808273ffffffffffffffffffffffffffffffffffffffff1673ffffffffffffffffffffffffffffffffffffffff16815260200191505060405180910390f35b341561060257600080fd5b61062e600480803573ffffffffffffffffffffffffffffffffffffffff169060200190919050506122f0565b005b341561063b57600080fd5b610717600480803573ffffffffffffffffffffffffffffffffffffffff1690602001909190803590602001909190803573ffffffffffffffffffffffffffffffffffffffff1690602001909190803590602001909190803590602001909190803590602001909190803573ffffffffffffffffffffffffffffffffffffffff1690602001909190803560ff16906020019091908035600019169060200190919080356000191690602001909190803590602001909190803573ffffffffffffffffffffffffffffffffffffffff1690602001909190505061238c565b604051808260ff1660ff16815260200191505060405180910390f35b341561073e57600080fd5b6107466126e9565b604051808273ffffffffffffffffffffffffffffffffffffffff1673ffffffffffffffffffffffffffffffffffffffff16815260200191505060405180910390f35b341561079357600080fd5b6107ca600480803573ffffffffffffffffffffffffffffffffffffffff169060200190919080351515906020019091905050612712565b005b34156107d757600080fd5b61080e600480803573ffffffffffffffffffffffffffffffffffffffff1690602001909190803515159060200190919050506127c8565b005b341561081b57600080fd5b610847600480803573ffffffffffffffffffffffffffffffffffffffff1690602001909190505061287b565b604051808215151515815260200191505060405180910390f35b341561086c57600080fd5b61087461289b565b604051808273ffffffffffffffffffffffffffffffffffffffff1673ffffffffffffffffffffffffffffffffffffffff16815260200191505060405180910390f35b34156108c157600080fd5b6108f6600480803573ffffffffffffffffffffffffffffffffffffffff169060200190919080359060200190919050506128c1565b005b341561090357600080fd5b61091d600480803560001916906020019091905050612cc3565b6040518082815260200191505060405180910390f35b600860009054906101000a900473ffffffffffffffffffffffffffffffffffffffff1681565b80151561096557600080fd5b50565b60008b8b8b8b8b8b8b604051808873ffffffffffffffffffffffffffffffffffffffff1673ffffffffffffffffffffffffffffffffffffffff166c010000000000000000000000000281526014018781526020018673ffffffffffffffffffffffffffffffffffffffff1673ffffffffffffffffffffffffffffffffffffffff166c010000000000000000000000000281526014018581526020018481526020018381526020018273ffffffffffffffffffffffffffffffffffffffff1673ffffffffffffffffffffffffffffffffffffffff166c01000000000000000000000000028152601401975050505050505050604051809103902090508573ffffffffffffffffffffffffffffffffffffffff16600182878787604051600081526020016040526000604051602001526040518085600019166000191681526020018460ff1660ff16815260200183600019166000191681526020018260001916600019168152602001945050505050602060405160208103908084039060008661646e5a03f11515610af857600080fd5b50506020604051035173ffffffffffffffffffffffffffffffffffffffff16148015610b245750874311155b8015610b5457508a610b516005600084600019166000191681526020019081526020016000205484612cdb565b11155b8015610bdc575081600160008e73ffffffffffffffffffffffffffffffffffffffff1673ffffffffffffffffffffffffffffffffffffffff16815260200190815260200160002060003373ffffffffffffffffffffffffffffffffffffffff1673ffffffffffffffffffffffffffffffffffffffff1681526020019081526020016000205410155b8015610c7857508a610bee8a84612d05565b811515610bf757fe5b04600160008c73ffffffffffffffffffffffffffffffffffffffff1673ffffffffffffffffffffffffffffffffffffffff16815260200190815260200160002060008873ffffffffffffffffffffffffffffffffffffffff1673ffffffffffffffffffffffffffffffffffffffff1681526020019081526020016000205410155b1515610c8357600080fd5b600760009054906101000a900473ffffffffffffffffffffffffffffffffffffffff1673ffffffffffffffffffffffffffffffffffffffff1663c5096a69600860009054906101000a900473ffffffffffffffffffffffffffffffffffffffff1633670de0b6b3a76400006000604051602001526040518463ffffffff167c0100000000000000000000000000000000000000000000000000000000028152600401808473ffffffffffffffffffffffffffffffffffffffff1673ffffffffffffffffffffffffffffffffffffffff1681526020018373ffffffffffffffffffffffffffffffffffffffff1673ffffffffffffffffffffffffffffffffffffffff1681526020018281526020019350505050602060405180830381600087803b1515610dae57600080fd5b6102c65a03f11515610dbf57600080fd5b50505060405180519050600b81905550600760009054906101000a900473ffffffffffffffffffffffffffffffffffffffff1673ffffffffffffffffffffffffffffffffffffffff1663c5096a69600960009054906101000a900473ffffffffffffffffffffffffffffffffffffffff1688670de0b6b3a76400006000604051602001526040518463ffffffff167c0100000000000000000000000000000000000000000000000000000000028152600401808473ffffffffffffffffffffffffffffffffffffffff1673ffffffffffffffffffffffffffffffffffffffff1681526020018373ffffffffffffffffffffffffffffffffffffffff1673ffffffffffffffffffffffffffffffffffffffff1681526020018281526020019350505050602060405180830381600087803b1515610efa57600080fd5b6102c65a03f11515610f0b57600080fd5b50505060405180519050600a81905550610fa1600160008e73ffffffffffffffffffffffffffffffffffffffff1673ffffffffffffffffffffffffffffffffffffffff16815260200190815260200160002060003373ffffffffffffffffffffffffffffffffffffffff1673ffffffffffffffffffffffffffffffffffffffff1681526020019081526020016000205483612d38565b600160008e73ffffffffffffffffffffffffffffffffffffffff1673ffffffffffffffffffffffffffffffffffffffff16815260200190815260200160002060003373ffffffffffffffffffffffffffffffffffffffff1673ffffffffffffffffffffffffffffffffffffffff16815260200190815260200160002081905550670de0b6b3a764000061104083600b54670de0b6b3a764000003612d05565b81151561104957fe5b04600c819055506110d8600160008e73ffffffffffffffffffffffffffffffffffffffff1673ffffffffffffffffffffffffffffffffffffffff16815260200190815260200160002060008873ffffffffffffffffffffffffffffffffffffffff1673ffffffffffffffffffffffffffffffffffffffff16815260200190815260200160002054600c54612cdb565b600160008e73ffffffffffffffffffffffffffffffffffffffff1673ffffffffffffffffffffffffffffffffffffffff16815260200190815260200160002060008873ffffffffffffffffffffffffffffffffffffffff1673ffffffffffffffffffffffffffffffffffffffff16815260200190815260200160002081905550670de0b6b3a764000061116d83600b54612d05565b81151561117657fe5b04600c81905550611227600160008e73ffffffffffffffffffffffffffffffffffffffff1673ffffffffffffffffffffffffffffffffffffffff1681526020019081526020016000206000600660009054906101000a900473ffffffffffffffffffffffffffffffffffffffff1673ffffffffffffffffffffffffffffffffffffffff1673ffffffffffffffffffffffffffffffffffffffff16815260200190815260200160002054600c54612cdb565b600160008e73ffffffffffffffffffffffffffffffffffffffff1673ffffffffffffffffffffffffffffffffffffffff1681526020019081526020016000206000600660009054906101000a900473ffffffffffffffffffffffffffffffffffffffff1673ffffffffffffffffffffffffffffffffffffffff1673ffffffffffffffffffffffffffffffffffffffff168152602001908152602001600020819055508a6112d48a84612d05565b8115156112dd57fe5b04600c8190555061136c600160008c73ffffffffffffffffffffffffffffffffffffffff1673ffffffffffffffffffffffffffffffffffffffff16815260200190815260200160002060008873ffffffffffffffffffffffffffffffffffffffff1673ffffffffffffffffffffffffffffffffffffffff16815260200190815260200160002054600c54612d38565b600160008c73ffffffffffffffffffffffffffffffffffffffff1673ffffffffffffffffffffffffffffffffffffffff16815260200190815260200160002060008873ffffffffffffffffffffffffffffffffffffffff1673ffffffffffffffffffffffffffffffffffffffff16815260200190815260200160002081905550670de0b6b3a76400008b61141561140f600a54670de0b6b3a7640000038d612d05565b85612d05565b81151561141e57fe5b0481151561142857fe5b04600c819055506114b7600160008c73ffffffffffffffffffffffffffffffffffffffff1673ffffffffffffffffffffffffffffffffffffffff16815260200190815260200160002060003373ffffffffffffffffffffffffffffffffffffffff1673ffffffffffffffffffffffffffffffffffffffff16815260200190815260200160002054600c54612cdb565b600160008c73ffffffffffffffffffffffffffffffffffffffff1673ffffffffffffffffffffffffffffffffffffffff16815260200190815260200160002060003373ffffffffffffffffffffffffffffffffffffffff1673ffffffffffffffffffffffffffffffffffffffff16815260200190815260200160002081905550670de0b6b3a76400008b611556611550600a548d612d05565b85612d05565b81151561155f57fe5b0481151561156957fe5b04600c8190555061161a600160008c73ffffffffffffffffffffffffffffffffffffffff1673ffffffffffffffffffffffffffffffffffffffff1681526020019081526020016000206000600660009054906101000a900473ffffffffffffffffffffffffffffffffffffffff1673ffffffffffffffffffffffffffffffffffffffff1673ffffffffffffffffffffffffffffffffffffffff16815260200190815260200160002054600c54612cdb565b600160008c73ffffffffffffffffffffffffffffffffffffffff1673ffffffffffffffffffffffffffffffffffffffff1681526020019081526020016000206000600660009054906101000a900473ffffffffffffffffffffffffffffffffffffffff1673ffffffffffffffffffffffffffffffffffffffff1673ffffffffffffffffffffffffffffffffffffffff168152602001908152602001600020819055506116e16005600083600019166000191681526020019081526020016000205483612cdb565b600560008360001916600019168152602001908152602001600020819055507f68381874bf7a1a19bfeecb18abbaa22f0fc7892cfec46e7dd4ea9b3688419d188c838c8e868e0281151561173157fe5b048a3387604051808873ffffffffffffffffffffffffffffffffffffffff1673ffffffffffffffffffffffffffffffffffffffff1681526020018781526020018673ffffffffffffffffffffffffffffffffffffffff1673ffffffffffffffffffffffffffffffffffffffff1681526020018581526020018473ffffffffffffffffffffffffffffffffffffffff1673ffffffffffffffffffffffffffffffffffffffff1681526020018373ffffffffffffffffffffffffffffffffffffffff1673ffffffffffffffffffffffffffffffffffffffff168152602001826000191660001916815260200197505050505050505060405180910390a1505050505050505050505050565b6118926000809054906101000a900473ffffffffffffffffffffffffffffffffffffffff1673ffffffffffffffffffffffffffffffffffffffff163373ffffffffffffffffffffffffffffffffffffffff1614610959565b8073ffffffffffffffffffffffffffffffffffffffff166000809054906101000a900473ffffffffffffffffffffffffffffffffffffffff1673ffffffffffffffffffffffffffffffffffffffff167fcbf985117192c8f614a58aaf97226bb80a754772f5f6edf06f87c675f2e6c66360405160405180910390a3806000806101000a81548173ffffffffffffffffffffffffffffffffffffffff021916908373ffffffffffffffffffffffffffffffffffffffff16021790555050565b600960009054906101000a900473ffffffffffffffffffffffffffffffffffffffff1681565b60008a8a8a8a8a8a87604051808873ffffffffffffffffffffffffffffffffffffffff1673ffffffffffffffffffffffffffffffffffffffff166c010000000000000000000000000281526014018781526020018673ffffffffffffffffffffffffffffffffffffffff1673ffffffffffffffffffffffffffffffffffffffff166c010000000000000000000000000281526014018581526020018481526020018381526020018273ffffffffffffffffffffffffffffffffffffffff1673ffffffffffffffffffffffffffffffffffffffff166c01000000000000000000000000028152601401975050505050505050604051809103902090503373ffffffffffffffffffffffffffffffffffffffff16600182878787604051600081526020016040526000604051602001526040518085600019166000191681526020018460ff1660ff16815260200183600019166000191681526020018260001916600019168152602001945050505050602060405160208103908084039060008661646e5a03f11515611b0657600080fd5b50506020604051035173ffffffffffffffffffffffffffffffffffffffff16141515611b3157600080fd5b89600560008360001916600019168152602001908152602001600020819055507f1e0b760c386003e9cb9bcf4fcf3997886042859d9b6ed6320e804597fcdb28b08b8b8b8b8b8b338c8c8c604051808b73ffffffffffffffffffffffffffffffffffffffff1673ffffffffffffffffffffffffffffffffffffffff1681526020018a81526020018973ffffffffffffffffffffffffffffffffffffffff1673ffffffffffffffffffffffffffffffffffffffff1681526020018881526020018781526020018681526020018573ffffffffffffffffffffffffffffffffffffffff1673ffffffffffffffffffffffffffffffffffffffff1681526020018460ff1660ff168152602001836000191660001916815260200182600019166000191681526020019a505050505050505050505060405180910390a15050505050505050505050565b60046020528060005260406000206000915054906101000a900460ff1681565b600073ffffffffffffffffffffffffffffffffffffffff168273ffffffffffffffffffffffffffffffffffffffff161415611dd757611d52600160008073ffffffffffffffffffffffffffffffffffffffff1673ffffffffffffffffffffffffffffffffffffffff16815260200190815260200160002060003373ffffffffffffffffffffffffffffffffffffffff1673ffffffffffffffffffffffffffffffffffffffff1681526020019081526020016000205434612cdb565b600160008073ffffffffffffffffffffffffffffffffffffffff1673ffffffffffffffffffffffffffffffffffffffff16815260200190815260200160002060003373ffffffffffffffffffffffffffffffffffffffff1673ffffffffffffffffffffffffffffffffffffffff16815260200190815260200160002081905550611ff2565b600034141515611de657600080fd5b611e6c600160008473ffffffffffffffffffffffffffffffffffffffff1673ffffffffffffffffffffffffffffffffffffffff16815260200190815260200160002060003373ffffffffffffffffffffffffffffffffffffffff1673ffffffffffffffffffffffffffffffffffffffff1681526020019081526020016000205482612cdb565b600160008473ffffffffffffffffffffffffffffffffffffffff1673ffffffffffffffffffffffffffffffffffffffff16815260200190815260200160002060003373ffffffffffffffffffffffffffffffffffffffff1673ffffffffffffffffffffffffffffffffffffffff168152602001908152602001600020819055508173ffffffffffffffffffffffffffffffffffffffff166323b872dd3330846000604051602001526040518463ffffffff167c0100000000000000000000000000000000000000000000000000000000028152600401808473ffffffffffffffffffffffffffffffffffffffff1673ffffffffffffffffffffffffffffffffffffffff1681526020018373ffffffffffffffffffffffffffffffffffffffff1673ffffffffffffffffffffffffffffffffffffffff1681526020018281526020019350505050602060405180830381600087803b1515611fcb57600080fd5b6102c65a03f11515611fdc57600080fd5b505050604051805190501515611ff157600080fd5b5b7fdcbc1c05240f31ff3ad067ef1ee35ce4997762752e3a095284754544f4c709d7823383600160008773ffffffffffffffffffffffffffffffffffffffff1673ffffffffffffffffffffffffffffffffffffffff16815260200190815260200160002060003373ffffffffffffffffffffffffffffffffffffffff1673ffffffffffffffffffffffffffffffffffffffff16815260200190815260200160002054604051808573ffffffffffffffffffffffffffffffffffffffff1673ffffffffffffffffffffffffffffffffffffffff1681526020018473ffffffffffffffffffffffffffffffffffffffff1673ffffffffffffffffffffffffffffffffffffffff16815260200183815260200182815260200194505050505060405180910390a15050565b6121716000809054906101000a900473ffffffffffffffffffffffffffffffffffffffff1673ffffffffffffffffffffffffffffffffffffffff163373ffffffffffffffffffffffffffffffffffffffff1614610959565b80600660006101000a81548173ffffffffffffffffffffffffffffffffffffffff021916908373ffffffffffffffffffffffffffffffffffffffff16021790555050565b61220d6000809054906101000a900473ffffffffffffffffffffffffffffffffffffffff1673ffffffffffffffffffffffffffffffffffffffff163373ffffffffffffffffffffffffffffffffffffffff1614610959565b80600460008473ffffffffffffffffffffffffffffffffffffffff1673ffffffffffffffffffffffffffffffffffffffff16815260200190815260200160002060006101000a81548160ff0219169083151502179055505050565b6001602052816000526040600020602052806000526040600020600091509150505481565b60026020528060005260406000206000915090508060000160009054906101000a900460ff16908060010154908060020154908060030154905084565b600660009054906101000a900473ffffffffffffffffffffffffffffffffffffffff1681565b6123486000809054906101000a900473ffffffffffffffffffffffffffffffffffffffff1673ffffffffffffffffffffffffffffffffffffffff163373ffffffffffffffffffffffffffffffffffffffff1614610959565b80600760006101000a81548173ffffffffffffffffffffffffffffffffffffffff021916908373ffffffffffffffffffffffffffffffffffffffff16021790555050565b60008c8c8c8c8c8c8c604051808873ffffffffffffffffffffffffffffffffffffffff1673ffffffffffffffffffffffffffffffffffffffff166c010000000000000000000000000281526014018781526020018673ffffffffffffffffffffffffffffffffffffffff1673ffffffffffffffffffffffffffffffffffffffff166c010000000000000000000000000281526014018581526020018481526020018381526020018273ffffffffffffffffffffffffffffffffffffffff1673ffffffffffffffffffffffffffffffffffffffff166c010000000000000000000000000281526014019750505050505050506040518091039020600d816000191690555082600160008f73ffffffffffffffffffffffffffffffffffffffff1673ffffffffffffffffffffffffffffffffffffffff16815260200190815260200160002060008473ffffffffffffffffffffffffffffffffffffffff1673ffffffffffffffffffffffffffffffffffffffff16815260200190815260200160002054101561251c57600190506126d9565b8673ffffffffffffffffffffffffffffffffffffffff166001600d54888888604051600081526020016040526000604051602001526040518085600019166000191681526020018460ff1660ff16815260200183600019166000191681526020018260001916600019168152602001945050505050602060405160208103908084039060008661646e5a03f115156125b357600080fd5b50506020604051035173ffffffffffffffffffffffffffffffffffffffff161415156125e257600490506126d9565b8b6125ed8b85612d05565b8115156125f657fe5b04600e81905550600e54600160008d73ffffffffffffffffffffffffffffffffffffffff1673ffffffffffffffffffffffffffffffffffffffff16815260200190815260200160002060008973ffffffffffffffffffffffffffffffffffffffff1673ffffffffffffffffffffffffffffffffffffffff16815260200190815260200160002054101561268c57600590506126d9565b8843111561269d57600690506126d9565b8b6126c560056000600d54600019166000191681526020019081526020016000205485612cdb565b11156126d457600790506126d9565b600090505b9c9b505050505050505050505050565b60008060009054906101000a900473ffffffffffffffffffffffffffffffffffffffff16905090565b600360003373ffffffffffffffffffffffffffffffffffffffff1673ffffffffffffffffffffffffffffffffffffffff16815260200190815260200160002060009054906101000a900460ff16151561276a57600080fd5b80600260008473ffffffffffffffffffffffffffffffffffffffff1673ffffffffffffffffffffffffffffffffffffffff16815260200190815260200160002060000160006101000a81548160ff0219169083151502179055505050565b6128206000809054906101000a900473ffffffffffffffffffffffffffffffffffffffff1673ffffffffffffffffffffffffffffffffffffffff163373ffffffffffffffffffffffffffffffffffffffff1614610959565b80600360008473ffffffffffffffffffffffffffffffffffffffff1673ffffffffffffffffffffffffffffffffffffffff16815260200190815260200160002060006101000a81548160ff0219169083151502179055505050565b60036020528060005260406000206000915054906101000a900460ff1681565b600760009054906101000a900473ffffffffffffffffffffffffffffffffffffffff1681565b80600160008473ffffffffffffffffffffffffffffffffffffffff1673ffffffffffffffffffffffffffffffffffffffff16815260200190815260200160002060003373ffffffffffffffffffffffffffffffffffffffff1673ffffffffffffffffffffffffffffffffffffffff16815260200190815260200160002054101561294a57600080fd5b6129d0600160008473ffffffffffffffffffffffffffffffffffffffff1673ffffffffffffffffffffffffffffffffffffffff16815260200190815260200160002060003373ffffffffffffffffffffffffffffffffffffffff1673ffffffffffffffffffffffffffffffffffffffff1681526020019081526020016000205482612d38565b600160008473ffffffffffffffffffffffffffffffffffffffff1673ffffffffffffffffffffffffffffffffffffffff16815260200190815260200160002060003373ffffffffffffffffffffffffffffffffffffffff1673ffffffffffffffffffffffffffffffffffffffff16815260200190815260200160002081905550600073ffffffffffffffffffffffffffffffffffffffff168273ffffffffffffffffffffffffffffffffffffffff161415612aca573373ffffffffffffffffffffffffffffffffffffffff166108fc829081150290604051600060405180830381858888f193505050501515612ac557600080fd5b612b9c565b8173ffffffffffffffffffffffffffffffffffffffff1663a9059cbb33836000604051602001526040518363ffffffff167c0100000000000000000000000000000000000000000000000000000000028152600401808373ffffffffffffffffffffffffffffffffffffffff1673ffffffffffffffffffffffffffffffffffffffff16815260200182815260200192505050602060405180830381600087803b1515612b7557600080fd5b6102c65a03f11515612b8657600080fd5b505050604051805190501515612b9b57600080fd5b5b7ff341246adaac6f497bc2a656f546ab9e182111d630394f0c57c710a59a2cb567823383600160008773ffffffffffffffffffffffffffffffffffffffff1673ffffffffffffffffffffffffffffffffffffffff16815260200190815260200160002060003373ffffffffffffffffffffffffffffffffffffffff1673ffffffffffffffffffffffffffffffffffffffff16815260200190815260200160002054604051808573ffffffffffffffffffffffffffffffffffffffff1673ffffffffffffffffffffffffffffffffffffffff1681526020018473ffffffffffffffffffffffffffffffffffffffff1673ffffffffffffffffffffffffffffffffffffffff16815260200183815260200182815260200194505050505060405180910390a15050565b60056020528060005260406000206000915090505481565b6000808284019050612cfb848210158015612cf65750838210155b610959565b8091505092915050565b6000808284029050612d2e6000851480612d295750838583811515612d2657fe5b04145b610959565b8091505092915050565b6000612d4683831115610959565b8183039050929150505600a165627a7a7230582046da606c1ef7939022fdca79f3b41337c84d8b9d04152e3df2afa6bb24049beb0029",
  "source": "pragma solidity ^0.4.6;\nimport \"./lib/Math.sol\";\nimport \"./lib/Owned.sol\";\nimport \"./interface/Token.sol\";\nimport \"./DVIP.sol\";\n\ncontract Exchange is Math, Owned {\n\n  mapping (address => mapping (address => uint256)) public tokens; //mapping of token addresses to mapping of account balances\n\n  struct Account {\n    bool authorized;\n    uint256 tier;\n    uint256 resetWithdrawal;\n    uint256 withdrawn;\n  }\n\n  mapping (address => Account) public accounts;\n  mapping (address => bool) public whitelistAdmins;\n  mapping (address => bool) public admins;\n  //ether balances are held in the token=0 account\n  mapping (bytes32 => uint256) public orderFills;\n  address public feeAccount;\n  address public dvipAddress;\n  address public feeMakeExporter;\n  address public feeTakeExporter;\n/*\n  mapping (address => uint256) public tokenToUSD;\n\n  mapping (uint256 => uint256) public tiers;\n*/\n\n//   uint256 public feeMake; //percentage times (1 ether)\n//   uint256 public feeTake; //percentage times (1 ether)\n\n  event Order(address tokenBuy, uint256 amountBuy, address tokenSell, uint256 amountSell, uint256 expires, uint256 nonce, address user, uint8 v, bytes32 r, bytes32 s);\n  event Cancel(address tokenBuy, uint256 amountBuy, address tokenSell, uint256 amountSell, uint256 expires, uint256 nonce, address user, uint8 v, bytes32 r, bytes32 s);\n  event Trade(address tokenBuy, uint256 amountBuy, address tokenSell, uint256 amountSell, address get, address give, bytes32 hash);\n  event Deposit(address token, address user, uint256 amount, uint256 balance);\n  event Withdraw(address token, address user, uint256 amount, uint256 balance);\n\n  function Exchange(address feeAccount_, address dvipAddress_) {\n    feeAccount = feeAccount_;\n    dvipAddress = dvipAddress_;\n    feeMakeExporter = 0x00000000000000000000000000000000000000f7;\n    feeTakeExporter = 0x00000000000000000000000000000000000000f8;\n  }\n\n  function setFeeAccount(address feeAccount_) onlyOwner {\n    feeAccount = feeAccount_;\n  }\n\n  function setDVIP(address dvipAddress_) onlyOwner {\n    dvipAddress = dvipAddress_;\n  }\n\n  function setAdmin(address admin, bool isAdmin) onlyOwner {\n    admins[admin] = isAdmin;\n  }\n\n  function setWhitelister(address whitelister, bool isWhitelister) onlyOwner {\n    whitelistAdmins[whitelister] = isWhitelister;\n  }\n\n  modifier onlyWhitelister {\n    if (!whitelistAdmins[msg.sender]) throw;\n    _;\n  }\n\n  modifier onlyAdmin {\n    if (msg.sender != owner && !admins[msg.sender]) throw;\n    _;\n  }\n/*\n  function setRate(address token, uint256 rate) onlyWhitelister {\n    tokenToUSD[token] = rate;\n  }\n*/\n\n  function setWhitelisted(address target, bool isWhitelisted) onlyWhitelister {\n    accounts[target].authorized = isWhitelisted;\n  }\n/*\n\n  function setTier(address target, uint256 tier) onlyWhitelister {\n    accounts[target].tier = tier;\n  }\n\n  function setTierLimit(uint256 tier, uint256 limit) onlyWhitelister {\n    tiers[tier] = limit;\n  }\n*/\n\n  modifier onlyWhitelisted {\n    if (!accounts[msg.sender].authorized) throw;\n    _;\n  }\n\n  function() {\n    throw;\n  }\n\n  function deposit(address token, uint256 amount) payable {\n    if (token == address(0)) {\n      tokens[address(0)][msg.sender] = safeAdd(tokens[address(0)][msg.sender], msg.value);\n    } else {\n      if (msg.value != 0) throw;\n      tokens[token][msg.sender] = safeAdd(tokens[token][msg.sender], amount);\n      if (!Token(token).transferFrom(msg.sender, this, amount)) throw;\n    }\n    Deposit(token, msg.sender, amount, tokens[token][msg.sender]);\n  }\n\n/*\n  function validateWithdrawal(address token, uint256 amt) internal {\n    if (accounts[msg.sender].resetWithdrawal < now) {\n      accounts[msg.sender].withdrawn = 0;\n      accounts[msg.sender].resetWithdrawal = now + 86400;\n    }\n    accounts[msg.sender].withdrawn = safeAdd(accounts[msg.sender].withdrawn, safeMul(tokenToUSD[token], amt) / (1 ether));\n    if (accounts[msg.sender].withdrawn > tiers[accounts[msg.sender].tier]) throw;\n  }\n*/\n\n  function withdraw(address token, uint256 amount) {\n    if (tokens[token][msg.sender] < amount) throw;\n    tokens[token][msg.sender] = safeSub(tokens[token][msg.sender], amount);\n    if (token == address(0)) {\n      if (!msg.sender.send(amount)) throw;\n    } else {\n      if (!Token(token).transfer(msg.sender, amount)) throw;\n    }\n    Withdraw(token, msg.sender, amount, tokens[token][msg.sender]);\n  }\n\n  uint256 internal feeTake;\n  uint256 internal feeMake;\n  uint256 internal feeTerm;\n\n  function trade(address tokenBuy, uint256 amountBuy, address tokenSell, uint256 amountSell, uint256 expires, uint256 nonce, address user, uint8 v, bytes32 r, bytes32 s, uint256 amount) {\n    //amount is in amountBuy terms\n    bytes32 hash = sha3(tokenBuy, amountBuy, tokenSell, amountSell, expires, nonce, user);\n    if (!(\n      ecrecover(hash,v,r,s) == user &&\n      block.number <= expires &&\n      safeAdd(orderFills[hash], amount) <= amountBuy &&\n      tokens[tokenBuy][msg.sender] >= amount &&\n      tokens[tokenSell][user] >= safeMul(amountSell, amount) / amountBuy\n    )) throw;\n    feeMake = DVIP(dvipAddress).feeFor(feeMakeExporter, msg.sender, 1 ether);\n    feeTake = DVIP(dvipAddress).feeFor(feeTakeExporter, user, 1 ether);\n    tokens[tokenBuy][msg.sender] = safeSub(tokens[tokenBuy][msg.sender], amount);\n    feeTerm = safeMul(amount, ((1 ether) - feeMake)) / (1 ether);\n    tokens[tokenBuy][user] = safeAdd(tokens[tokenBuy][user], feeTerm);\n    feeTerm = safeMul(amount, feeMake) / (1 ether);\n    tokens[tokenBuy][feeAccount] = safeAdd(tokens[tokenBuy][feeAccount], feeTerm);\n    feeTerm = safeMul(amountSell, amount) / amountBuy;\n    tokens[tokenSell][user] = safeSub(tokens[tokenSell][user], feeTerm);\n    feeTerm = safeMul(safeMul(((1 ether) - feeTake), amountSell), amount) / amountBuy / (1 ether);\n    tokens[tokenSell][msg.sender] = safeAdd(tokens[tokenSell][msg.sender], feeTerm);\n    feeTerm = safeMul(safeMul(feeTake, amountSell), amount) / amountBuy / (1 ether);\n    tokens[tokenSell][feeAccount] = safeAdd(tokens[tokenSell][feeAccount], feeTerm);\n    orderFills[hash] = safeAdd(orderFills[hash], amount);\n    Trade(tokenBuy, amount, tokenSell, amountSell * amount / amountBuy, user, msg.sender, hash);\n  }\n\n  bytes32 internal testHash;\n  uint256 internal amountSelln;\n\n  function testTrade(address tokenBuy, uint256 amountBuy, address tokenSell, uint256 amountSell, uint256 expires, uint256 nonce, address user, uint8 v, bytes32 r, bytes32 s, uint256 amount, address sender) constant returns (uint8 code) {\n    testHash = sha3(tokenBuy, amountBuy, tokenSell, amountSell, expires, nonce, user);\n    if (tokens[tokenBuy][sender] < amount) return 1;\n/*\n    if (!accounts[sender].authorized) return 2; \n    if (!accounts[user].authorized) return 3;\n*/\n    if (ecrecover(testHash, v, r, s) != user) return 4;\n    amountSelln = safeMul(amountSell, amount) / amountBuy;\n    if (tokens[tokenSell][user] < amountSelln) return 5;\n    if (block.number > expires) return 6;\n    if (safeAdd(orderFills[testHash], amount) > amountBuy) return 7;\n    return 0;\n  }\n\n/*\n  function testOrder(address user, address tokenBuy, uint256 amountBuy, address tokenSell, uint256 amountSell, uint256 expires, uint256 nonce, uint8 v, bytes32 r, bytes32 s) returns (uint8 result) {\n    testOrderHash = sha3(tokenBuy, amountBuy, tokenSell, amountSell, expires, nonce, user);\n    if (ecrecover(testOrderHash, v, r, s) != user) return 1;\n    if (block.number > expires) return 2;\n    if (tokens[tokenSell][user] < amountSell) return 3;\n    return 0;\n  }\n*/\n\n/*\n  function availableVolume(address tokenBuy, uint256 amountBuy, address tokenSell, uint256 amountSell, uint256 expires, uint256 nonce, address user, uint8 v, bytes32 r, bytes32 s) constant returns(uint256) {\n    bytes32 hash = sha3(tokenBuy, amountBuy, tokenSell, amountSell, expires, nonce);\n    if (!(\n      ecrecover(hash,v,r,s) == user &&\n      block.number <= expires\n    )) return 0;\n    uint256 available1 = safeSub(amountBuy, orderFills[hash]);\n    uint256 available2 = safeMul(tokens[tokenSell][user], amountBuy) / amountSell;\n    if (available1<available2) return available1;\n    return available2;\n  }\n*/\n\n  function cancelOrder(address tokenBuy, uint256 amountBuy, address tokenSell, uint256 amountSell, uint256 expires, uint256 nonce, uint8 v, bytes32 r, bytes32 s, address user) {\n    bytes32 hash = sha3(tokenBuy, amountBuy, tokenSell, amountSell, expires, nonce, user);\n    if (ecrecover(hash,v,r,s) != msg.sender) throw;\n    orderFills[hash] = amountBuy;\n    Cancel(tokenBuy, amountBuy, tokenSell, amountSell, expires, nonce, msg.sender, v, r, s);\n  }\n}\n",
  "sourcePath": "/Users/drewstone/src/eth/truffle-abi/contracts/Exchange.sol",
  "compiler": {
    "name": "solc",
    "version": "0.4.19+commit.c4cbbb05.Emscripten.clang"
  },
  "schemaVersion": "2.0.0",
  "updatedAt": "2018-07-09T23:07:42.784Z"
}