{
  "contractName": "Namereg",
  "abi": [
    {
      "constant": true,
      "inputs": [
        {
          "name": "",
          "type": "bytes32"
        }
      ],
      "name": "registryActive",
      "outputs": [
        {
          "name": "",
          "type": "bool"
        }
      ],
      "payable": false,
      "stateMutability": "view",
      "type": "function"
    },
    {
      "constant": false,
      "inputs": [
        {
          "name": "assertion",
          "type": "bool"
        }
      ],
      "name": "assert",
      "outputs": [],
      "payable": false,
      "stateMutability": "nonpayable",
      "type": "function"
    },
    {
      "constant": true,
      "inputs": [
        {
          "name": "",
          "type": "uint256"
        }
      ],
      "name": "registryIndex",
      "outputs": [
        {
          "name": "",
          "type": "bytes32"
        }
      ],
      "payable": false,
      "stateMutability": "view",
      "type": "function"
    },
    {
      "constant": false,
      "inputs": [
        {
          "name": "newOwner",
          "type": "address"
        }
      ],
      "name": "setOwner",
      "outputs": [],
      "payable": false,
      "stateMutability": "nonpayable",
      "type": "function"
    },
    {
      "constant": true,
      "inputs": [
        {
          "name": "",
          "type": "address"
        }
      ],
      "name": "lookupTable",
      "outputs": [
        {
          "name": "",
          "type": "bytes32"
        }
      ],
      "payable": false,
      "stateMutability": "view",
      "type": "function"
    },
    {
      "constant": true,
      "inputs": [
        {
          "name": "",
          "type": "bytes32"
        }
      ],
      "name": "registry",
      "outputs": [
        {
          "name": "record",
          "type": "address"
        },
        {
          "name": "owner",
          "type": "address"
        },
        {
          "name": "initialized",
          "type": "bool"
        }
      ],
      "payable": false,
      "stateMutability": "view",
      "type": "function"
    },
    {
      "constant": true,
      "inputs": [
        {
          "name": "",
          "type": "address"
        }
      ],
      "name": "lookupActive",
      "outputs": [
        {
          "name": "",
          "type": "bool"
        }
      ],
      "payable": false,
      "stateMutability": "view",
      "type": "function"
    },
    {
      "constant": false,
      "inputs": [],
      "name": "getOwner",
      "outputs": [
        {
          "name": "out",
          "type": "address"
        }
      ],
      "payable": false,
      "stateMutability": "nonpayable",
      "type": "function"
    },
    {
      "constant": true,
      "inputs": [
        {
          "name": "",
          "type": "uint256"
        }
      ],
      "name": "lookupIndex",
      "outputs": [
        {
          "name": "",
          "type": "address"
        }
      ],
      "payable": false,
      "stateMutability": "view",
      "type": "function"
    },
    {
      "constant": false,
      "inputs": [],
      "name": "isLocked",
      "outputs": [
        {
          "name": "status",
          "type": "bool"
        }
      ],
      "payable": false,
      "stateMutability": "nonpayable",
      "type": "function"
    },
    {
      "constant": false,
      "inputs": [],
      "name": "lock",
      "outputs": [],
      "payable": false,
      "stateMutability": "nonpayable",
      "type": "function"
    },
    {
      "anonymous": false,
      "inputs": [
        {
          "indexed": true,
          "name": "name",
          "type": "bytes32"
        },
        {
          "indexed": true,
          "name": "addr",
          "type": "address"
        },
        {
          "indexed": true,
          "name": "owner",
          "type": "address"
        }
      ],
      "name": "NameRegistered",
      "type": "event"
    },
    {
      "anonymous": false,
      "inputs": [
        {
          "indexed": true,
          "name": "name",
          "type": "bytes32"
        }
      ],
      "name": "NameUnregistered",
      "type": "event"
    },
    {
      "anonymous": false,
      "inputs": [
        {
          "indexed": true,
          "name": "from",
          "type": "address"
        }
      ],
      "name": "Locked",
      "type": "event"
    },
    {
      "anonymous": false,
      "inputs": [
        {
          "indexed": true,
          "name": "from",
          "type": "address"
        }
      ],
      "name": "PropertySet",
      "type": "event"
    },
    {
      "anonymous": false,
      "inputs": [
        {
          "indexed": true,
          "name": "previousOwner",
          "type": "address"
        },
        {
          "indexed": true,
          "name": "newOwner",
          "type": "address"
        }
      ],
      "name": "SetOwner",
      "type": "event"
    },
    {
      "constant": false,
      "inputs": [
        {
          "name": "name",
          "type": "bytes32"
        },
        {
          "name": "addr",
          "type": "address"
        }
      ],
      "name": "register",
      "outputs": [
        {
          "name": "success",
          "type": "bool"
        }
      ],
      "payable": false,
      "stateMutability": "nonpayable",
      "type": "function"
    },
    {
      "constant": false,
      "inputs": [
        {
          "name": "name",
          "type": "bytes32"
        }
      ],
      "name": "unregister",
      "outputs": [
        {
          "name": "success",
          "type": "bool"
        }
      ],
      "payable": false,
      "stateMutability": "nonpayable",
      "type": "function"
    },
    {
      "constant": false,
      "inputs": [
        {
          "name": "addr",
          "type": "address"
        }
      ],
      "name": "unregisterAddr",
      "outputs": [
        {
          "name": "success",
          "type": "bool"
        }
      ],
      "payable": false,
      "stateMutability": "nonpayable",
      "type": "function"
    },
    {
      "constant": true,
      "inputs": [
        {
          "name": "name",
          "type": "bytes32"
        }
      ],
      "name": "resolve",
      "outputs": [
        {
          "name": "result",
          "type": "address"
        }
      ],
      "payable": false,
      "stateMutability": "view",
      "type": "function"
    },
    {
      "constant": false,
      "inputs": [
        {
          "name": "addr",
          "type": "address"
        }
      ],
      "name": "getName",
      "outputs": [
        {
          "name": "result",
          "type": "bytes32"
        }
      ],
      "payable": false,
      "stateMutability": "nonpayable",
      "type": "function"
    },
    {
      "constant": false,
      "inputs": [
        {
          "name": "name",
          "type": "bytes32"
        }
      ],
      "name": "registerSelf",
      "outputs": [
        {
          "name": "success",
          "type": "bool"
        }
      ],
      "payable": false,
      "stateMutability": "nonpayable",
      "type": "function"
    },
    {
      "constant": false,
      "inputs": [],
      "name": "extractRegistryIndexLength",
      "outputs": [
        {
          "name": "len",
          "type": "uint256"
        }
      ],
      "payable": false,
      "stateMutability": "nonpayable",
      "type": "function"
    },
    {
      "constant": false,
      "inputs": [],
      "name": "extractLookupIndexLength",
      "outputs": [
        {
          "name": "len",
          "type": "uint256"
        }
      ],
      "payable": false,
      "stateMutability": "nonpayable",
      "type": "function"
    },
    {
      "constant": false,
      "inputs": [
        {
          "name": "key",
          "type": "bytes32"
        }
      ],
      "name": "extractRegistryRecord",
      "outputs": [
        {
          "name": "record",
          "type": "address"
        }
      ],
      "payable": false,
      "stateMutability": "nonpayable",
      "type": "function"
    },
    {
      "constant": false,
      "inputs": [
        {
          "name": "key",
          "type": "bytes32"
        }
      ],
      "name": "extractRegistryOwner",
      "outputs": [
        {
          "name": "owner",
          "type": "address"
        }
      ],
      "payable": false,
      "stateMutability": "nonpayable",
      "type": "function"
    },
    {
      "constant": false,
      "inputs": [
        {
          "name": "key",
          "type": "bytes32"
        }
      ],
      "name": "extractRegistryInitialized",
      "outputs": [
        {
          "name": "initialized",
          "type": "bool"
        }
      ],
      "payable": false,
      "stateMutability": "nonpayable",
      "type": "function"
    }
  ],
  "bytecode": "0x6060604052336000806101000a81548173ffffffffffffffffffffffffffffffffffffffff021916908373ffffffffffffffffffffffffffffffffffffffff16021790555061144b806100536000396000f300606060405260043610610128576000357c0100000000000000000000000000000000000000000000000000000000900463ffffffff168063059845cd1461012d5780630674763c1461016c5780630a074903146101915780630b234d0f146101d057806313af40351461020f578063157a37e5146102485780631a0919dc1461029d5780633c68964d146102dc5780635c23bdf5146103435780635fd4b08a146103aa5780637ef50298146103ff578063813037c9146104a457806385c3649f146104f5578063893d20e8146105345780638a186788146105895780638b2a81b2146105ec5780639f8f301614610615578063a4e2d63414610666578063a964c66914610693578063d22057a9146106fa578063d503345714610758578063f83d08ba14610781575b600080fd5b341561013857600080fd5b610152600480803560001916906020019091905050610796565b604051808215151515815260200191505060405180910390f35b341561017757600080fd5b61018f600480803515159060200190919050506107b6565b005b341561019c57600080fd5b6101b66004808035600019169060200190919050506107c5565b604051808215151515815260200191505060405180910390f35b34156101db57600080fd5b6101f160048080359060200190919050506107fa565b60405180826000191660001916815260200191505060405180910390f35b341561021a57600080fd5b610246600480803573ffffffffffffffffffffffffffffffffffffffff1690602001909190505061081e565b005b341561025357600080fd5b61027f600480803573ffffffffffffffffffffffffffffffffffffffff16906020019091905050610934565b60405180826000191660001916815260200191505060405180910390f35b34156102a857600080fd5b6102c260048080356000191690602001909190505061094c565b604051808215151515815260200191505060405180910390f35b34156102e757600080fd5b61030160048080356000191690602001909190505061095f565b604051808273ffffffffffffffffffffffffffffffffffffffff1673ffffffffffffffffffffffffffffffffffffffff16815260200191505060405180910390f35b341561034e57600080fd5b6103686004808035600019169060200190919050506109a7565b604051808273ffffffffffffffffffffffffffffffffffffffff1673ffffffffffffffffffffffffffffffffffffffff16815260200191505060405180910390f35b34156103b557600080fd5b6103e1600480803573ffffffffffffffffffffffffffffffffffffffff169060200190919050506109ef565b60405180826000191660001916815260200191505060405180910390f35b341561040a57600080fd5b610424600480803560001916906020019091905050610a38565b604051808473ffffffffffffffffffffffffffffffffffffffff1673ffffffffffffffffffffffffffffffffffffffff1681526020018373ffffffffffffffffffffffffffffffffffffffff1673ffffffffffffffffffffffffffffffffffffffff16815260200182151515158152602001935050505060405180910390f35b34156104af57600080fd5b6104db600480803573ffffffffffffffffffffffffffffffffffffffff16906020019091905050610aaf565b604051808215151515815260200191505060405180910390f35b341561050057600080fd5b61051a600480803560001916906020019091905050610acf565b604051808215151515815260200191505060405180910390f35b341561053f57600080fd5b610547610b8c565b604051808273ffffffffffffffffffffffffffffffffffffffff1673ffffffffffffffffffffffffffffffffffffffff16815260200191505060405180910390f35b341561059457600080fd5b6105aa6004808035906020019091905050610bb5565b604051808273ffffffffffffffffffffffffffffffffffffffff1673ffffffffffffffffffffffffffffffffffffffff16815260200191505060405180910390f35b34156105f757600080fd5b6105ff610bf4565b6040518082815260200191505060405180910390f35b341561062057600080fd5b61064c600480803573ffffffffffffffffffffffffffffffffffffffff16906020019091905050610c01565b604051808215151515815260200191505060405180910390f35b341561067157600080fd5b610679610cb0565b604051808215151515815260200191505060405180910390f35b341561069e57600080fd5b6106b8600480803560001916906020019091905050610cc6565b604051808273ffffffffffffffffffffffffffffffffffffffff1673ffffffffffffffffffffffffffffffffffffffff16815260200191505060405180910390f35b341561070557600080fd5b61073e60048080356000191690602001909190803573ffffffffffffffffffffffffffffffffffffffff16906020019091905050610d0e565b604051808215151515815260200191505060405180910390f35b341561076357600080fd5b61076b610d23565b6040518082815260200191505060405180910390f35b341561078c57600080fd5b610794610d30565b005b60046020528060005260406000206000915054906101000a900460ff1681565b8015156107c257600080fd5b50565b600060016000836000191660001916815260200190815260200160002060010160149054906101000a900460ff169050919050565b60038181548110151561080957fe5b90600052602060002090016000915090505481565b6108766000809054906101000a900473ffffffffffffffffffffffffffffffffffffffff1673ffffffffffffffffffffffffffffffffffffffff163373ffffffffffffffffffffffffffffffffffffffff16146107b6565b8073ffffffffffffffffffffffffffffffffffffffff166000809054906101000a900473ffffffffffffffffffffffffffffffffffffffff1673ffffffffffffffffffffffffffffffffffffffff167fcbf985117192c8f614a58aaf97226bb80a754772f5f6edf06f87c675f2e6c66360405160405180910390a3806000806101000a81548173ffffffffffffffffffffffffffffffffffffffff021916908373ffffffffffffffffffffffffffffffffffffffff16021790555050565b60026020528060005260406000206000915090505481565b60006109588233610e01565b9050919050565b600060016000836000191660001916815260200190815260200160002060010160009054906101000a900473ffffffffffffffffffffffffffffffffffffffff169050919050565b600060016000836000191660001916815260200190815260200160002060000160009054906101000a900473ffffffffffffffffffffffffffffffffffffffff169050919050565b6000600260008373ffffffffffffffffffffffffffffffffffffffff1673ffffffffffffffffffffffffffffffffffffffff168152602001908152602001600020549050919050565b60016020528060005260406000206000915090508060000160009054906101000a900473ffffffffffffffffffffffffffffffffffffffff16908060010160009054906101000a900473ffffffffffffffffffffffffffffffffffffffff16908060010160149054906101000a900460ff16905083565b60066020528060005260406000206000915054906101000a900460ff1681565b6000610b7a60016000846000191660001916815260200190815260200160002060010160149054906101000a900460ff161580610b7557503373ffffffffffffffffffffffffffffffffffffffff1660016000856000191660001916815260200190815260200160002060010160009054906101000a900473ffffffffffffffffffffffffffffffffffffffff1673ffffffffffffffffffffffffffffffffffffffff16145b6107b6565b610b85823333610f33565b9050919050565b60008060009054906101000a900473ffffffffffffffffffffffffffffffffffffffff16905090565b600581815481101515610bc457fe5b90600052602060002090016000915054906101000a900473ffffffffffffffffffffffffffffffffffffffff1681565b6000600580549050905090565b600080610c5c6000809054906101000a900473ffffffffffffffffffffffffffffffffffffffff1673ffffffffffffffffffffffffffffffffffffffff163373ffffffffffffffffffffffffffffffffffffffff16146107b6565b600260008473ffffffffffffffffffffffffffffffffffffffff1673ffffffffffffffffffffffffffffffffffffffff168152602001908152602001600020549050610ca88133610e01565b915050919050565b60008060149054906101000a900460ff16905090565b600060016000836000191660001916815260200190815260200160002060000160009054906101000a900473ffffffffffffffffffffffffffffffffffffffff169050919050565b6000610d1b8383336110a1565b905092915050565b6000600380549050905090565b610d886000809054906101000a900473ffffffffffffffffffffffffffffffffffffffff1673ffffffffffffffffffffffffffffffffffffffff163373ffffffffffffffffffffffffffffffffffffffff16146107b6565b610da1600060149054906101000a900460ff16156107b6565b6001600060146101000a81548160ff0219169083151502179055503373ffffffffffffffffffffffffffffffffffffffff167f44427e3003a08f22cf803894075ac0297524e09e521fc1c15bc91741ce3dc15960405160405180910390a2565b6000610e788273ffffffffffffffffffffffffffffffffffffffff1660016000866000191660001916815260200190815260200160002060010160009054906101000a900473ffffffffffffffffffffffffffffffffffffffff1673ffffffffffffffffffffffffffffffffffffffff16146107b6565b600160008460001916600019168152602001908152602001600020600080820160006101000a81549073ffffffffffffffffffffffffffffffffffffffff02191690556001820160006101000a81549073ffffffffffffffffffffffffffffffffffffffff02191690556001820160146101000a81549060ff0219169055505082600019167ff90474c0c8e413a70b614384f6b6b8b2c02adb68e339d366a833672caf56ef6160405160405180910390a26001905092915050565b6000610f3e846111d5565b610f478361126b565b8260016000866000191660001916815260200190815260200160002060000160006101000a81548173ffffffffffffffffffffffffffffffffffffffff021916908373ffffffffffffffffffffffffffffffffffffffff1602179055508160016000866000191660001916815260200190815260200160002060010160006101000a81548173ffffffffffffffffffffffffffffffffffffffff021916908373ffffffffffffffffffffffffffffffffffffffff1602179055506001806000866000191660001916815260200190815260200160002060010160146101000a81548160ff0219169083151502179055508173ffffffffffffffffffffffffffffffffffffffff168373ffffffffffffffffffffffffffffffffffffffff1685600019167f1188da7a87954141c184e11001a3c8b47c1acbb67c307e415727789d8c706cc060405160405180910390a4600190509392505050565b60006111c160016000866000191660001916815260200190815260200160002060010160149054906101000a900460ff1680156111485750600073ffffffffffffffffffffffffffffffffffffffff1660016000876000191660001916815260200190815260200160002060000160009054906101000a900473ffffffffffffffffffffffffffffffffffffffff1673ffffffffffffffffffffffffffffffffffffffff16145b806111bc57508273ffffffffffffffffffffffffffffffffffffffff1660016000876000191660001916815260200190815260200160002060010160009054906101000a900473ffffffffffffffffffffffffffffffffffffffff1673ffffffffffffffffffffffffffffffffffffffff16145b6107b6565b6111cc848484610f33565b90509392505050565b60046000826000191660001916815260200190815260200160002060009054906101000a900460ff16151561126857600160046000836000191660001916815260200190815260200160002060006101000a81548160ff0219169083151502179055506003805480600101828161124c919061137d565b9160005260206000209001600083909190915090600019169055505b50565b600660008273ffffffffffffffffffffffffffffffffffffffff1673ffffffffffffffffffffffffffffffffffffffff16815260200190815260200160002060009054906101000a900460ff16151561137a576001600660008373ffffffffffffffffffffffffffffffffffffffff1673ffffffffffffffffffffffffffffffffffffffff16815260200190815260200160002060006101000a81548160ff0219169083151502179055506005805480600101828161132a91906113a9565b9160005260206000209001600083909190916101000a81548173ffffffffffffffffffffffffffffffffffffffff021916908373ffffffffffffffffffffffffffffffffffffffff160217905550505b50565b8154818355818115116113a4578183600052602060002091820191016113a391906113d5565b5b505050565b8154818355818115116113d0578183600052602060002091820191016113cf91906113fa565b5b505050565b6113f791905b808211156113f35760008160009055506001016113db565b5090565b90565b61141c91905b80821115611418576000816000905550600101611400565b5090565b905600a165627a7a723058205efa752349b4fd13bf85085844803d2d247192f77a1cbccb35783f840a323b860029",
  "source": "pragma solidity ^0.4.6;\nimport \"./StateTransferrable.sol\";\n\n/**\n * @title Nameregistry contract to resolve\n *\n * @author Ray Pulver\n */\ncontract Namereg is StateTransferrable {\n\n  event NameRegistered(bytes32 indexed name, address indexed addr, address indexed owner);\n  event NameUnregistered(bytes32 indexed name);\n  struct Record {\n    address record;\n    address owner;\n    bool initialized;\n  }\n  mapping (bytes32 => Record) public registry;\n  mapping (address => bytes32) public lookupTable;\n  bytes32[] public registryIndex;\n  mapping (bytes32 => bool) public registryActive;\n  address[] public lookupIndex;\n  mapping (address => bool) public lookupActive;\n\n  function registerImpl(bytes32 name, address addr, address owner) internal returns (bool success) {\n    activateName(name);\n    activateAddress(addr);\n    registry[name].record = addr;\n    registry[name].owner = owner;\n    registry[name].initialized = true;\n    NameRegistered(name, addr, owner);\n    return true;\n  }\n\n  function registerImplChecked(bytes32 name, address addr, address owner) internal returns (bool success) {\n    assert(registry[name].initialized && registry[name].record == address(0x0) || registry[name].owner == owner);\n    return registerImpl(name, addr, owner);\n  }\n    \n\n  function unregisterImpl(bytes32 name, address caller) internal returns (bool success) {\n    assert(registry[name].owner == caller);\n    delete registry[name];\n    NameUnregistered(name);\n    return true;\n  } \n\n  /**\n   * @notice Register contract name  `${name}` for address `${address}`.\n   *\n   * @param name Name of the contract.\n   * @param addr Address of the contract.\n   *\n   * @return result of operation, true or false\n   */\n  function register(bytes32 name, address addr) returns (bool success) {\n    return registerImplChecked(name, addr, msg.sender);\n  }\n\n  /**\n   * @notice Unregister contract by name `${name}`.\n   *\n   * @param name Name of the contract.\n   * @return result of operation, true or false.\n   */\n  function unregister(bytes32 name) returns (bool success) {\n    return unregisterImpl(name, msg.sender);\n  }\n\n  /**\n   * @notice Unregister contract by address `${address}`\n   *\n   * @param addr Address to be unregistered\n   * @return result of operation, true or false\n   *\n   */\n  function unregisterAddr(address addr) onlyOwner returns (bool success) {\n    bytes32 name = lookupTable[addr];\n    return unregisterImpl(name, msg.sender);\n  }\n\n  /**\n   * @notice Resolves contract by name `${name}`.\n   *\n   * @param name of the contract to be resolved\n   * @return the address of the resolved contract\n   */\n  function resolve(bytes32 name) constant returns (address result) {\n    return registry[name].record;\n  }\n\n  /**\n    * @notice Resolves contract by address `${addr}`.\n    *\n    * @param addr of the contract to be resolved\n    * @return the name of the resolved contract\n    */\n  function getName(address addr) returns (bytes32 result) {\n    return lookupTable[addr];\n  }\n\n  function registerSelf(bytes32 name) returns (bool success) {\n    assert(!registry[name].initialized || registry[name].owner == msg.sender);\n    return registerImpl(name, msg.sender, msg.sender);\n  }\n    \n  function extractRegistryIndexLength() returns (uint256 len) {\n    return registryIndex.length;\n  }\n\n  function extractLookupIndexLength() returns (uint256 len) {\n    return lookupIndex.length;\n  }\n\n  function extractRegistryRecord(bytes32 key) returns (address record) {\n    return registry[key].record;\n  }\n\n  function extractRegistryOwner(bytes32 key) returns (address owner) {\n    return registry[key].owner;\n  }\n\n  function extractRegistryInitialized(bytes32 key) returns (bool initialized) {\n    return registry[key].initialized;\n  }\n\n  function activateName(bytes32 name) internal {\n    if (!registryActive[name]) {\n      registryActive[name] = true;\n      registryIndex.push(name);\n    }\n  }\n\n  function activateAddress(address addr) internal {\n    if (!lookupActive[addr]) {\n      lookupActive[addr] = true;\n      lookupIndex.push(addr);\n    }\n  }\n}\n",
  "sourcePath": "/Users/drewstone/src/eth/truffle-abi/contracts/lib/Namereg.sol",
  "compiler": {
    "name": "solc",
    "version": "0.4.19+commit.c4cbbb05.Emscripten.clang"
  },
  "schemaVersion": "2.0.0",
  "updatedAt": "2018-07-09T23:07:42.796Z"
}