{
  "contractName": "Precision",
  "abi": [
    {
      "constant": true,
      "inputs": [],
      "name": "decimals",
      "outputs": [
        {
          "name": "",
          "type": "uint8"
        }
      ],
      "payable": false,
      "stateMutability": "view",
      "type": "function"
    }
  ],
  "bytecode": "0x60606040523415600e57600080fd5b60ae8061001c6000396000f300606060405260043610603f576000357c0100000000000000000000000000000000000000000000000000000000900463ffffffff168063313ce567146044575b600080fd5b3415604e57600080fd5b60546070565b604051808260ff1660ff16815260200191505060405180910390f35b6000809054906101000a900460ff16815600a165627a7a7230582083ff210421d3b54fb879bd1a3422cf4a1afdff80fc4622c4e6ca41f37f3773b10029",
  "source": "pragma solidity ^0.4.7;\n\ncontract Precision {\n  uint8 public decimals;\n}\n",
  "sourcePath": "/Users/drewstone/src/eth/truffle-abi/contracts/lib/Precision.sol",
  "compiler": {
    "name": "solc",
    "version": "0.4.19+commit.c4cbbb05.Emscripten.clang"
  },
  "schemaVersion": "2.0.0",
  "updatedAt": "2018-07-09T23:07:42.797Z"
}