{
  "contractName": "StateTransferrable",
  "abi": [
    {
      "constant": false,
      "inputs": [
        {
          "name": "assertion",
          "type": "bool"
        }
      ],
      "name": "assert",
      "outputs": [],
      "payable": false,
      "stateMutability": "nonpayable",
      "type": "function"
    },
    {
      "constant": false,
      "inputs": [
        {
          "name": "newOwner",
          "type": "address"
        }
      ],
      "name": "setOwner",
      "outputs": [],
      "payable": false,
      "stateMutability": "nonpayable",
      "type": "function"
    },
    {
      "constant": false,
      "inputs": [],
      "name": "getOwner",
      "outputs": [
        {
          "name": "out",
          "type": "address"
        }
      ],
      "payable": false,
      "stateMutability": "nonpayable",
      "type": "function"
    },
    {
      "anonymous": false,
      "inputs": [
        {
          "indexed": true,
          "name": "from",
          "type": "address"
        }
      ],
      "name": "Locked",
      "type": "event"
    },
    {
      "anonymous": false,
      "inputs": [
        {
          "indexed": true,
          "name": "from",
          "type": "address"
        }
      ],
      "name": "PropertySet",
      "type": "event"
    },
    {
      "anonymous": false,
      "inputs": [
        {
          "indexed": true,
          "name": "previousOwner",
          "type": "address"
        },
        {
          "indexed": true,
          "name": "newOwner",
          "type": "address"
        }
      ],
      "name": "SetOwner",
      "type": "event"
    },
    {
      "constant": false,
      "inputs": [],
      "name": "lock",
      "outputs": [],
      "payable": false,
      "stateMutability": "nonpayable",
      "type": "function"
    },
    {
      "constant": false,
      "inputs": [],
      "name": "isLocked",
      "outputs": [
        {
          "name": "status",
          "type": "bool"
        }
      ],
      "payable": false,
      "stateMutability": "nonpayable",
      "type": "function"
    }
  ],
  "bytecode": "0x6060604052336000806101000a81548173ffffffffffffffffffffffffffffffffffffffff021916908373ffffffffffffffffffffffffffffffffffffffff1602179055506103c8806100536000396000f30060606040526004361061006d576000357c0100000000000000000000000000000000000000000000000000000000900463ffffffff1680630674763c1461007257806313af403514610097578063893d20e8146100d0578063a4e2d63414610125578063f83d08ba14610152575b600080fd5b341561007d57600080fd5b61009560048080351515906020019091905050610167565b005b34156100a257600080fd5b6100ce600480803573ffffffffffffffffffffffffffffffffffffffff16906020019091905050610176565b005b34156100db57600080fd5b6100e361028c565b604051808273ffffffffffffffffffffffffffffffffffffffff1673ffffffffffffffffffffffffffffffffffffffff16815260200191505060405180910390f35b341561013057600080fd5b6101386102b5565b604051808215151515815260200191505060405180910390f35b341561015d57600080fd5b6101656102cb565b005b80151561017357600080fd5b50565b6101ce6000809054906101000a900473ffffffffffffffffffffffffffffffffffffffff1673ffffffffffffffffffffffffffffffffffffffff163373ffffffffffffffffffffffffffffffffffffffff1614610167565b8073ffffffffffffffffffffffffffffffffffffffff166000809054906101000a900473ffffffffffffffffffffffffffffffffffffffff1673ffffffffffffffffffffffffffffffffffffffff167fcbf985117192c8f614a58aaf97226bb80a754772f5f6edf06f87c675f2e6c66360405160405180910390a3806000806101000a81548173ffffffffffffffffffffffffffffffffffffffff021916908373ffffffffffffffffffffffffffffffffffffffff16021790555050565b60008060009054906101000a900473ffffffffffffffffffffffffffffffffffffffff16905090565b60008060149054906101000a900460ff16905090565b6103236000809054906101000a900473ffffffffffffffffffffffffffffffffffffffff1673ffffffffffffffffffffffffffffffffffffffff163373ffffffffffffffffffffffffffffffffffffffff1614610167565b61033c600060149054906101000a900460ff1615610167565b6001600060146101000a81548160ff0219169083151502179055503373ffffffffffffffffffffffffffffffffffffffff167f44427e3003a08f22cf803894075ac0297524e09e521fc1c15bc91741ce3dc15960405160405180910390a25600a165627a7a72305820214ba94696f214b559304e5ade8fadc2c954ba69c4a1ee2dbeeaa3cfa83f62130029",
  "source": "pragma solidity ^0.4.6;\nimport \"./Owned.sol\";\n\ncontract StateTransferrable is Owned {\n  bool internal locked;\n  event Locked(address indexed from);\n  event PropertySet(address indexed from);\n  modifier onlyIfUnlocked {\n    assert(!locked);\n    _;\n  }\n  modifier setter {\n    _;\n    PropertySet(msg.sender);\n  }\n  modifier onlyOwnerUnlocked {\n    assert(!locked && msg.sender == owner);\n    _;\n  }\n  function lock() onlyOwner onlyIfUnlocked {\n    locked = true;\n    Locked(msg.sender);\n  }\n  function isLocked() returns (bool status) {\n    return locked;\n  }\n}\n",
  "sourcePath": "/Users/drewstone/src/eth/truffle-abi/contracts/lib/StateTransferrable.sol",
  "compiler": {
    "name": "solc",
    "version": "0.4.19+commit.c4cbbb05.Emscripten.clang"
  },
  "schemaVersion": "2.0.0",
  "updatedAt": "2018-07-09T23:07:42.797Z"
}